{
  "contractName": "TenderFactory",
  "abi": [
    {
      "inputs": [],
      "stateMutability": "nonpayable",
      "type": "constructor"
    },
    {
      "anonymous": false,
      "inputs": [
        {
          "indexed": true,
          "internalType": "address",
          "name": "owner",
          "type": "address"
        },
        {
          "indexed": false,
          "internalType": "address",
          "name": "deployedTender",
          "type": "address"
        },
        {
          "indexed": false,
          "internalType": "string",
          "name": "category",
          "type": "string"
        },
        {
          "indexed": false,
          "internalType": "string",
          "name": "image",
          "type": "string"
        },
        {
          "indexed": false,
          "internalType": "uint256",
          "name": "createTime",
          "type": "uint256"
        }
      ],
      "name": "CreatedTender",
      "type": "event"
    },
    {
      "anonymous": false,
      "inputs": [
        {
          "indexed": false,
          "internalType": "uint256",
          "name": "regNumber",
          "type": "uint256"
        },
        {
          "indexed": true,
          "internalType": "address",
          "name": "client",
          "type": "address"
        },
        {
          "indexed": false,
          "internalType": "string",
          "name": "pdf",
          "type": "string"
        },
        {
          "indexed": false,
          "internalType": "uint256",
          "name": "registeredTime",
          "type": "uint256"
        }
      ],
      "name": "RegisteredProtocol",
      "type": "event"
    },
    {
      "anonymous": false,
      "inputs": [
        {
          "indexed": true,
          "internalType": "bytes32",
          "name": "role",
          "type": "bytes32"
        },
        {
          "indexed": true,
          "internalType": "bytes32",
          "name": "previousAdminRole",
          "type": "bytes32"
        },
        {
          "indexed": true,
          "internalType": "bytes32",
          "name": "newAdminRole",
          "type": "bytes32"
        }
      ],
      "name": "RoleAdminChanged",
      "type": "event"
    },
    {
      "anonymous": false,
      "inputs": [
        {
          "indexed": true,
          "internalType": "bytes32",
          "name": "role",
          "type": "bytes32"
        },
        {
          "indexed": true,
          "internalType": "address",
          "name": "account",
          "type": "address"
        },
        {
          "indexed": true,
          "internalType": "address",
          "name": "sender",
          "type": "address"
        }
      ],
      "name": "RoleGranted",
      "type": "event"
    },
    {
      "anonymous": false,
      "inputs": [
        {
          "indexed": true,
          "internalType": "bytes32",
          "name": "role",
          "type": "bytes32"
        },
        {
          "indexed": true,
          "internalType": "address",
          "name": "account",
          "type": "address"
        },
        {
          "indexed": true,
          "internalType": "address",
          "name": "sender",
          "type": "address"
        }
      ],
      "name": "RoleRevoked",
      "type": "event"
    },
    {
      "inputs": [],
      "name": "AUTHORIZER_ROLE",
      "outputs": [
        {
          "internalType": "bytes32",
          "name": "",
          "type": "bytes32"
        }
      ],
      "stateMutability": "view",
      "type": "function"
    },
    {
      "inputs": [],
      "name": "DEFAULT_ADMIN_ROLE",
      "outputs": [
        {
          "internalType": "bytes32",
          "name": "",
          "type": "bytes32"
        }
      ],
      "stateMutability": "view",
      "type": "function"
    },
    {
      "inputs": [],
      "name": "admin",
      "outputs": [
        {
          "internalType": "address",
          "name": "",
          "type": "address"
        }
      ],
      "stateMutability": "view",
      "type": "function"
    },
    {
      "inputs": [
        {
          "internalType": "uint256",
          "name": "",
          "type": "uint256"
        }
      ],
      "name": "authorizers",
      "outputs": [
        {
          "internalType": "address",
          "name": "",
          "type": "address"
        }
      ],
      "stateMutability": "view",
      "type": "function"
    },
    {
      "inputs": [
        {
          "internalType": "bytes32",
          "name": "role",
          "type": "bytes32"
        }
      ],
      "name": "getRoleAdmin",
      "outputs": [
        {
          "internalType": "bytes32",
          "name": "",
          "type": "bytes32"
        }
      ],
      "stateMutability": "view",
      "type": "function"
    },
    {
      "inputs": [
        {
          "internalType": "bytes32",
          "name": "role",
          "type": "bytes32"
        },
        {
          "internalType": "address",
          "name": "account",
          "type": "address"
        }
      ],
      "name": "grantRole",
      "outputs": [],
      "stateMutability": "nonpayable",
      "type": "function"
    },
    {
      "inputs": [
        {
          "internalType": "bytes32",
          "name": "role",
          "type": "bytes32"
        },
        {
          "internalType": "address",
          "name": "account",
          "type": "address"
        }
      ],
      "name": "hasRole",
      "outputs": [
        {
          "internalType": "bool",
          "name": "",
          "type": "bool"
        }
      ],
      "stateMutability": "view",
      "type": "function"
    },
    {
      "inputs": [],
      "name": "index",
      "outputs": [
        {
          "internalType": "uint256",
          "name": "",
          "type": "uint256"
        }
      ],
      "stateMutability": "view",
      "type": "function"
    },
    {
      "inputs": [
        {
          "internalType": "uint256",
          "name": "",
          "type": "uint256"
        }
      ],
      "name": "protocolTrack",
      "outputs": [
        {
          "internalType": "string",
          "name": "url",
          "type": "string"
        },
        {
          "internalType": "string",
          "name": "image",
          "type": "string"
        },
        {
          "internalType": "string",
          "name": "category",
          "type": "string"
        },
        {
          "internalType": "bool",
          "name": "validated",
          "type": "bool"
        },
        {
          "internalType": "address",
          "name": "beneficiary",
          "type": "address"
        },
        {
          "internalType": "uint256",
          "name": "deadline",
          "type": "uint256"
        },
        {
          "internalType": "uint256",
          "name": "minimumContribution",
          "type": "uint256"
        },
        {
          "internalType": "uint256",
          "name": "target",
          "type": "uint256"
        },
        {
          "internalType": "uint256",
          "name": "number",
          "type": "uint256"
        }
      ],
      "stateMutability": "view",
      "type": "function"
    },
    {
      "inputs": [
        {
          "internalType": "address",
          "name": "",
          "type": "address"
        },
        {
          "internalType": "uint256",
          "name": "",
          "type": "uint256"
        }
      ],
      "name": "protocols",
      "outputs": [
        {
          "internalType": "string",
          "name": "url",
          "type": "string"
        },
        {
          "internalType": "string",
          "name": "image",
          "type": "string"
        },
        {
          "internalType": "string",
          "name": "category",
          "type": "string"
        },
        {
          "internalType": "bool",
          "name": "validated",
          "type": "bool"
        },
        {
          "internalType": "address",
          "name": "beneficiary",
          "type": "address"
        },
        {
          "internalType": "uint256",
          "name": "deadline",
          "type": "uint256"
        },
        {
          "internalType": "uint256",
          "name": "minimumContribution",
          "type": "uint256"
        },
        {
          "internalType": "uint256",
          "name": "target",
          "type": "uint256"
        },
        {
          "internalType": "uint256",
          "name": "number",
          "type": "uint256"
        }
      ],
      "stateMutability": "view",
      "type": "function"
    },
    {
      "inputs": [
        {
          "internalType": "bytes32",
          "name": "role",
          "type": "bytes32"
        },
        {
          "internalType": "address",
          "name": "account",
          "type": "address"
        }
      ],
      "name": "renounceRole",
      "outputs": [],
      "stateMutability": "nonpayable",
      "type": "function"
    },
    {
      "inputs": [
        {
          "internalType": "bytes32",
          "name": "role",
          "type": "bytes32"
        },
        {
          "internalType": "address",
          "name": "account",
          "type": "address"
        }
      ],
      "name": "revokeRole",
      "outputs": [],
      "stateMutability": "nonpayable",
      "type": "function"
    },
    {
      "inputs": [
        {
          "internalType": "address",
          "name": "",
          "type": "address"
        }
      ],
      "name": "roles",
      "outputs": [
        {
          "internalType": "string",
          "name": "",
          "type": "string"
        }
      ],
      "stateMutability": "view",
      "type": "function"
    },
    {
      "inputs": [
        {
          "internalType": "bytes4",
          "name": "interfaceId",
          "type": "bytes4"
        }
      ],
      "name": "supportsInterface",
      "outputs": [
        {
          "internalType": "bool",
          "name": "",
          "type": "bool"
        }
      ],
      "stateMutability": "view",
      "type": "function"
    },
    {
      "inputs": [
        {
          "internalType": "uint256",
          "name": "_min",
          "type": "uint256"
        },
        {
          "internalType": "uint256",
          "name": "_deadline",
          "type": "uint256"
        },
        {
          "internalType": "uint256",
          "name": "_target",
          "type": "uint256"
        },
        {
          "internalType": "string",
          "name": "_url",
          "type": "string"
        },
        {
          "internalType": "string",
          "name": "_image",
          "type": "string"
        },
        {
          "internalType": "string",
          "name": "_category",
          "type": "string"
        }
      ],
      "name": "registerProtocol",
      "outputs": [],
      "stateMutability": "nonpayable",
      "type": "function"
    },
    {
      "inputs": [
        {
          "internalType": "address",
          "name": "_client",
          "type": "address"
        },
        {
          "internalType": "uint256",
          "name": "protocolNum",
          "type": "uint256"
        }
      ],
      "name": "validateProtocol",
      "outputs": [],
      "stateMutability": "nonpayable",
      "type": "function"
    },
    {
      "inputs": [],
      "name": "getProtocol",
      "outputs": [
        {
          "components": [
            {
              "internalType": "string",
              "name": "url",
              "type": "string"
            },
            {
              "internalType": "string",
              "name": "image",
              "type": "string"
            },
            {
              "internalType": "string",
              "name": "category",
              "type": "string"
            },
            {
              "internalType": "bool",
              "name": "validated",
              "type": "bool"
            },
            {
              "internalType": "address",
              "name": "beneficiary",
              "type": "address"
            },
            {
              "internalType": "uint256",
              "name": "deadline",
              "type": "uint256"
            },
            {
              "internalType": "uint256",
              "name": "minimumContribution",
              "type": "uint256"
            },
            {
              "internalType": "uint256",
              "name": "target",
              "type": "uint256"
            },
            {
              "internalType": "uint256",
              "name": "number",
              "type": "uint256"
            }
          ],
          "internalType": "struct TenderFactory.Protocol[]",
          "name": "",
          "type": "tuple[]"
        }
      ],
      "stateMutability": "view",
      "type": "function"
    },
    {
      "inputs": [
        {
          "internalType": "address",
          "name": "_account",
          "type": "address"
        }
      ],
      "name": "grantAuthorityRole",
      "outputs": [],
      "stateMutability": "nonpayable",
      "type": "function"
    },
    {
      "inputs": [
        {
          "internalType": "address",
          "name": "_account",
          "type": "address"
        }
      ],
      "name": "revokeAuthorityRole",
      "outputs": [],
      "stateMutability": "nonpayable",
      "type": "function"
    },
    {
      "inputs": [],
      "name": "getCurrentAuthorizers",
      "outputs": [
        {
          "internalType": "address[]",
          "name": "",
          "type": "address[]"
        }
      ],
      "stateMutability": "view",
      "type": "function"
    },
    {
      "inputs": [],
      "name": "getYourRole",
      "outputs": [
        {
          "internalType": "string",
          "name": "",
          "type": "string"
        }
      ],
      "stateMutability": "view",
      "type": "function"
    },
    {
      "inputs": [],
      "name": "getDeployedTenders",
      "outputs": [
        {
          "internalType": "address[]",
          "name": "",
          "type": "address[]"
        }
      ],
      "stateMutability": "view",
      "type": "function"
    },
    {
      "inputs": [],
      "name": "getUnauthorizedProtocols",
      "outputs": [
        {
          "components": [
            {
              "internalType": "string",
              "name": "url",
              "type": "string"
            },
            {
              "internalType": "string",
              "name": "image",
              "type": "string"
            },
            {
              "internalType": "string",
              "name": "category",
              "type": "string"
            },
            {
              "internalType": "bool",
              "name": "validated",
              "type": "bool"
            },
            {
              "internalType": "address",
              "name": "beneficiary",
              "type": "address"
            },
            {
              "internalType": "uint256",
              "name": "deadline",
              "type": "uint256"
            },
            {
              "internalType": "uint256",
              "name": "minimumContribution",
              "type": "uint256"
            },
            {
              "internalType": "uint256",
              "name": "target",
              "type": "uint256"
            },
            {
              "internalType": "uint256",
              "name": "number",
              "type": "uint256"
            }
          ],
          "internalType": "struct TenderFactory.Protocol[]",
          "name": "",
          "type": "tuple[]"
        }
      ],
      "stateMutability": "view",
      "type": "function"
    }
  ],
  "bytecode": "0x608060405234801562000010575f80fd5b503360015f6101000a81548173ffffffffffffffffffffffffffffffffffffffff021916908373ffffffffffffffffffffffffffffffffffffffff1602179055506040518060400160405280600581526020017f61646d696e00000000000000000000000000000000000000000000000000000081525060065f3373ffffffffffffffffffffffffffffffffffffffff1673ffffffffffffffffffffffffffffffffffffffff1681526020019081526020015f209081620000d29190620004a6565b50620000e75f801b33620000ed60201b60201c565b6200058a565b620000ff8282620001d860201b60201c565b620001d45760015f808481526020019081526020015f205f015f8373ffffffffffffffffffffffffffffffffffffffff1673ffffffffffffffffffffffffffffffffffffffff1681526020019081526020015f205f6101000a81548160ff021916908315150217905550620001796200023b60201b60201c565b73ffffffffffffffffffffffffffffffffffffffff168173ffffffffffffffffffffffffffffffffffffffff16837f2f8788117e7eff1d82e926ec794901d17c78024a50270940304540a733656f0d60405160405180910390a45b5050565b5f805f8481526020019081526020015f205f015f8373ffffffffffffffffffffffffffffffffffffffff1673ffffffffffffffffffffffffffffffffffffffff1681526020019081526020015f205f9054906101000a900460ff16905092915050565b5f33905090565b5f81519050919050565b7f4e487b71000000000000000000000000000000000000000000000000000000005f52604160045260245ffd5b7f4e487b71000000000000000000000000000000000000000000000000000000005f52602260045260245ffd5b5f6002820490506001821680620002be57607f821691505b602082108103620002d457620002d362000279565b5b50919050565b5f819050815f5260205f209050919050565b5f6020601f8301049050919050565b5f82821b905092915050565b5f60088302620003387fffffffffffffffffffffffffffffffffffffffffffffffffffffffffffffffff82620002fb565b620003448683620002fb565b95508019841693508086168417925050509392505050565b5f819050919050565b5f819050919050565b5f6200038e6200038862000382846200035c565b62000365565b6200035c565b9050919050565b5f819050919050565b620003a9836200036e565b620003c1620003b88262000395565b84845462000307565b825550505050565b5f90565b620003d7620003c9565b620003e48184846200039e565b505050565b5b818110156200040b57620003ff5f82620003cd565b600181019050620003ea565b5050565b601f8211156200045a576200042481620002da565b6200042f84620002ec565b810160208510156200043f578190505b620004576200044e85620002ec565b830182620003e9565b50505b505050565b5f82821c905092915050565b5f6200047c5f19846008026200045f565b1980831691505092915050565b5f6200049683836200046b565b9150826002028217905092915050565b620004b18262000242565b67ffffffffffffffff811115620004cd57620004cc6200024c565b5b620004d98254620002a6565b620004e68282856200040f565b5f60209050601f8311600181146200051c575f841562000507578287015190505b62000513858262000489565b86555062000582565b601f1984166200052c86620002da565b5f5b8281101562000555578489015182556001820191506020850194506020810190506200052e565b8683101562000575578489015162000571601f8916826200046b565b8355505b6001600288020188555050505b505050505050565b6168fd80620005985f395ff3fe608060405234801561000f575f80fd5b506004361061014b575f3560e01c80638f2fc346116100c1578063bf8334e21161007a578063bf8334e2146103b9578063d16352af146103f1578063d32db2181461040f578063d547741f1461042b578063d5fd7d6314610447578063f851a440146104635761014b565b80638f2fc346146102e357806391d148541461030157806399374642146103315780639b19ee4f14610361578063a217fddf1461037d578063bc06946f1461039b5761014b565b806336568abe1161011357806336568abe1461021957806347487fcc14610235578063537d30841461025357806356fb39e01461028b57806372c3a0e6146102a75780638202082f146102c55761014b565b806301ffc9a71461014f57806311f6649b1461017f578063248a9ca3146101af5780632986c0e5146101df5780632f2ff15d146101fd575b5f80fd5b61016960048036038101906101649190612a99565b610481565b6040516101769190612ade565b60405180910390f35b61019960048036038101906101949190612b2a565b6104fa565b6040516101a69190612b94565b60405180910390f35b6101c960048036038101906101c49190612be0565b610535565b6040516101d69190612c1a565b60405180910390f35b6101e7610551565b6040516101f49190612c42565b60405180910390f35b61021760048036038101906102129190612c85565b610557565b005b610233600480360381019061022e9190612c85565b610578565b005b61023d6105fb565b60405161024a9190612d7a565b60405180910390f35b61026d60048036038101906102689190612b2a565b610686565b60405161028299989796959493929190612e24565b60405180910390f35b6102a560048036038101906102a09190612ec4565b61088e565b005b6102af610efa565b6040516102bc91906130f3565b60405180910390f35b6102cd61129d565b6040516102da9190612d7a565b60405180910390f35b6102eb611328565b6040516102f89190613113565b60405180910390f35b61031b60048036038101906103169190612c85565b6113f3565b6040516103289190612ade565b60405180910390f35b61034b60048036038101906103469190613133565b611456565b6040516103589190613113565b60405180910390f35b61037b6004803603810190610376919061328a565b6114f1565b005b610385611893565b6040516103929190612c1a565b60405180910390f35b6103a3611899565b6040516103b09190612c1a565b60405180910390f35b6103d360048036038101906103ce9190612ec4565b6118bd565b6040516103e899989796959493929190612e24565b60405180910390f35b6103f9611adf565b60405161040691906130f3565b60405180910390f35b61042960048036038101906104249190613133565b611dbe565b005b61044560048036038101906104409190612c85565b611fc4565b005b610461600480360381019061045c9190613133565b611fe5565b005b61046b61216c565b6040516104789190612b94565b60405180910390f35b5f7f7965db0b000000000000000000000000000000000000000000000000000000007bffffffffffffffffffffffffffffffffffffffffffffffffffffffff1916827bffffffffffffffffffffffffffffffffffffffffffffffffffffffff191614806104f357506104f282612191565b5b9050919050565b60078181548110610509575f80fd5b905f5260205f20015f915054906101000a900473ffffffffffffffffffffffffffffffffffffffff1681565b5f805f8381526020019081526020015f20600101549050919050565b60025481565b61056082610535565b610569816121fa565b610573838361220e565b505050565b6105806122e8565b73ffffffffffffffffffffffffffffffffffffffff168173ffffffffffffffffffffffffffffffffffffffff16146105ed576040517f08c379a00000000000000000000000000000000000000000000000000000000081526004016105e4906133d7565b60405180910390fd5b6105f782826122ef565b5050565b6060600780548060200260200160405190810160405280929190818152602001828054801561067c57602002820191905f5260205f20905b815f9054906101000a900473ffffffffffffffffffffffffffffffffffffffff1673ffffffffffffffffffffffffffffffffffffffff1681526020019060010190808311610633575b5050505050905090565b6005602052805f5260405f205f91509050805f0180546106a590613422565b80601f01602080910402602001604051908101604052809291908181526020018280546106d190613422565b801561071c5780601f106106f35761010080835404028352916020019161071c565b820191905f5260205f20905b8154815290600101906020018083116106ff57829003601f168201915b50505050509080600101805461073190613422565b80601f016020809104026020016040519081016040528092919081815260200182805461075d90613422565b80156107a85780601f1061077f576101008083540402835291602001916107a8565b820191905f5260205f20905b81548152906001019060200180831161078b57829003601f168201915b5050505050908060020180546107bd90613422565b80601f01602080910402602001604051908101604052809291908181526020018280546107e990613422565b80156108345780601f1061080b57610100808354040283529160200191610834565b820191905f5260205f20905b81548152906001019060200180831161081757829003601f168201915b505050505090806003015f9054906101000a900460ff16908060030160019054906101000a900473ffffffffffffffffffffffffffffffffffffffff16908060040154908060050154908060060154908060070154905089565b6108b87f14dd327f3834be9d0f7cf44f6cf11c96ded83bd68d1a1b3926d35739e7bb88d0336113f3565b6108f7576040517f08c379a00000000000000000000000000000000000000000000000000000000081526004016108ee9061349c565b60405180910390fd5b5f60045f8473ffffffffffffffffffffffffffffffffffffffff1673ffffffffffffffffffffffffffffffffffffffff1681526020019081526020015f20905061093f6129c8565b5f805b8380549050811015610e955784848281548110610962576109616134ba565b5b905f5260205f2090600802016007015403610e825783818154811061098a576109896134ba565b5b905f5260205f2090600802016003015f9054906101000a900460ff16156109e6576040517f08c379a00000000000000000000000000000000000000000000000000000000081526004016109dd90613531565b60405180910390fd5b8381815481106109f9576109f86134ba565b5b905f5260205f209060080201604051806101200160405290815f82018054610a2090613422565b80601f0160208091040260200160405190810160405280929190818152602001828054610a4c90613422565b8015610a975780601f10610a6e57610100808354040283529160200191610a97565b820191905f5260205f20905b815481529060010190602001808311610a7a57829003601f168201915b50505050508152602001600182018054610ab090613422565b80601f0160208091040260200160405190810160405280929190818152602001828054610adc90613422565b8015610b275780601f10610afe57610100808354040283529160200191610b27565b820191905f5260205f20905b815481529060010190602001808311610b0a57829003601f168201915b50505050508152602001600282018054610b4090613422565b80601f0160208091040260200160405190810160405280929190818152602001828054610b6c90613422565b8015610bb75780601f10610b8e57610100808354040283529160200191610bb7565b820191905f5260205f20905b815481529060010190602001808311610b9a57829003601f168201915b50505050508152602001600382015f9054906101000a900460ff161515151581526020016003820160019054906101000a900473ffffffffffffffffffffffffffffffffffffffff1673ffffffffffffffffffffffffffffffffffffffff1673ffffffffffffffffffffffffffffffffffffffff168152602001600482015481526020016005820154815260200160068201548152602001600782015481525050925060018360600190151590811515815250508260055f8781526020019081526020015f205f820151815f019081610c9091906136ec565b506020820151816001019081610ca691906136ec565b506040820151816002019081610cbc91906136ec565b506060820151816003015f6101000a81548160ff02191690831515021790555060808201518160030160016101000a81548173ffffffffffffffffffffffffffffffffffffffff021916908373ffffffffffffffffffffffffffffffffffffffff16021790555060a0820151816004015560c0820151816005015560e0820151816006015561010082015181600701559050508260045f8873ffffffffffffffffffffffffffffffffffffffff1673ffffffffffffffffffffffffffffffffffffffff1681526020019081526020015f208281548110610d9f57610d9e6134ba565b5b905f5260205f2090600802015f820151815f019081610dbe91906136ec565b506020820151816001019081610dd491906136ec565b506040820151816002019081610dea91906136ec565b506060820151816003015f6101000a81548160ff02191690831515021790555060808201518160030160016101000a81548173ffffffffffffffffffffffffffffffffffffffff021916908373ffffffffffffffffffffffffffffffffffffffff16021790555060a0820151816004015560c0820151816005015560e082015181600601556101008201518160070155905050600191505b8080610e8d906137e8565b915050610942565b5080610ed6576040517f08c379a0000000000000000000000000000000000000000000000000000000008152600401610ecd9061389f565b60405180910390fd5b610ef3858360a001518460e001518560c00151865f0151896123c9565b5050505050565b6060610f267f14dd327f3834be9d0f7cf44f6cf11c96ded83bd68d1a1b3926d35739e7bb88d0336113f3565b610f65576040517f08c379a0000000000000000000000000000000000000000000000000000000008152600401610f5c90613907565b60405180910390fd5b5f60025467ffffffffffffffff811115610f8257610f81613166565b5b604051908082528060200260200182016040528015610fbb57816020015b610fa86129c8565b815260200190600190039081610fa05790505b5090505f805b6002548110156112945760055f8281526020019081526020015f206003015f9054906101000a900460ff166112815760055f8281526020019081526020015f20604051806101200160405290815f8201805461101c90613422565b80601f016020809104026020016040519081016040528092919081815260200182805461104890613422565b80156110935780601f1061106a57610100808354040283529160200191611093565b820191905f5260205f20905b81548152906001019060200180831161107657829003601f168201915b505050505081526020016001820180546110ac90613422565b80601f01602080910402602001604051908101604052809291908181526020018280546110d890613422565b80156111235780601f106110fa57610100808354040283529160200191611123565b820191905f5260205f20905b81548152906001019060200180831161110657829003601f168201915b5050505050815260200160028201805461113c90613422565b80601f016020809104026020016040519081016040528092919081815260200182805461116890613422565b80156111b35780601f1061118a576101008083540402835291602001916111b3565b820191905f5260205f20905b81548152906001019060200180831161119657829003601f168201915b50505050508152602001600382015f9054906101000a900460ff161515151581526020016003820160019054906101000a900473ffffffffffffffffffffffffffffffffffffffff1673ffffffffffffffffffffffffffffffffffffffff1673ffffffffffffffffffffffffffffffffffffffff168152602001600482015481526020016005820154815260200160068201548152602001600782015481525050838381518110611267576112666134ba565b5b6020026020010181905250818061127d906137e8565b9250505b808061128c906137e8565b915050610fc1565b50819250505090565b6060600380548060200260200160405190810160405280929190818152602001828054801561131e57602002820191905f5260205f20905b815f9054906101000a900473ffffffffffffffffffffffffffffffffffffffff1673ffffffffffffffffffffffffffffffffffffffff16815260200190600101908083116112d5575b5050505050905090565b606060065f3373ffffffffffffffffffffffffffffffffffffffff1673ffffffffffffffffffffffffffffffffffffffff1681526020019081526020015f20805461137290613422565b80601f016020809104026020016040519081016040528092919081815260200182805461139e90613422565b80156113e95780601f106113c0576101008083540402835291602001916113e9565b820191905f5260205f20905b8154815290600101906020018083116113cc57829003601f168201915b5050505050905090565b5f805f8481526020019081526020015f205f015f8373ffffffffffffffffffffffffffffffffffffffff1673ffffffffffffffffffffffffffffffffffffffff1681526020019081526020015f205f9054906101000a900460ff16905092915050565b6006602052805f5260405f205f91509050805461147290613422565b80601f016020809104026020016040519081016040528092919081815260200182805461149e90613422565b80156114e95780601f106114c0576101008083540402835291602001916114e9565b820191905f5260205f20905b8154815290600101906020018083116114cc57829003601f168201915b505050505081565b6114fd5f801b336113f3565b1561153d576040517f08c379a00000000000000000000000000000000000000000000000000000000081526004016115349061396f565b60405180910390fd5b6115677f14dd327f3834be9d0f7cf44f6cf11c96ded83bd68d1a1b3926d35739e7bb88d0336113f3565b156115a7576040517f08c379a000000000000000000000000000000000000000000000000000000000815260040161159e906139d7565b60405180910390fd5b5f6040518061012001604052808581526020018481526020018381526020015f151581526020013373ffffffffffffffffffffffffffffffffffffffff168152602001878152602001888152602001868152602001600254815250905060045f3373ffffffffffffffffffffffffffffffffffffffff1673ffffffffffffffffffffffffffffffffffffffff1681526020019081526020015f2081908060018154018082558091505060019003905f5260205f2090600802015f909190919091505f820151815f01908161167b91906136ec565b50602082015181600101908161169191906136ec565b5060408201518160020190816116a791906136ec565b506060820151816003015f6101000a81548160ff02191690831515021790555060808201518160030160016101000a81548173ffffffffffffffffffffffffffffffffffffffff021916908373ffffffffffffffffffffffffffffffffffffffff16021790555060a0820151816004015560c0820151816005015560e08201518160060155610100820151816007015550508060055f60025481526020019081526020015f205f820151815f01908161176091906136ec565b50602082015181600101908161177691906136ec565b50604082015181600201908161178c91906136ec565b506060820151816003015f6101000a81548160ff02191690831515021790555060808201518160030160016101000a81548173ffffffffffffffffffffffffffffffffffffffff021916908373ffffffffffffffffffffffffffffffffffffffff16021790555060a0820151816004015560c0820151816005015560e0820151816006015561010082015181600701559050503373ffffffffffffffffffffffffffffffffffffffff167ffd8175cfb483e1350577782ab39af4fdeb7dbf54b6f18744433b70d5bd21c6e4600254864260405161186b939291906139f5565b60405180910390a260025f815480929190611885906137e8565b919050555050505050505050565b5f801b81565b7f14dd327f3834be9d0f7cf44f6cf11c96ded83bd68d1a1b3926d35739e7bb88d081565b6004602052815f5260405f2081815481106118d6575f80fd5b905f5260205f2090600802015f9150915050805f0180546118f690613422565b80601f016020809104026020016040519081016040528092919081815260200182805461192290613422565b801561196d5780601f106119445761010080835404028352916020019161196d565b820191905f5260205f20905b81548152906001019060200180831161195057829003601f168201915b50505050509080600101805461198290613422565b80601f01602080910402602001604051908101604052809291908181526020018280546119ae90613422565b80156119f95780601f106119d0576101008083540402835291602001916119f9565b820191905f5260205f20905b8154815290600101906020018083116119dc57829003601f168201915b505050505090806002018054611a0e90613422565b80601f0160208091040260200160405190810160405280929190818152602001828054611a3a90613422565b8015611a855780601f10611a5c57610100808354040283529160200191611a85565b820191905f5260205f20905b815481529060010190602001808311611a6857829003601f168201915b505050505090806003015f9054906101000a900460ff16908060030160019054906101000a900473ffffffffffffffffffffffffffffffffffffffff16908060040154908060050154908060060154908060070154905089565b606060045f3373ffffffffffffffffffffffffffffffffffffffff1673ffffffffffffffffffffffffffffffffffffffff1681526020019081526020015f20805480602002602001604051908101604052809291908181526020015f905b82821015611db5578382905f5260205f209060080201604051806101200160405290815f82018054611b6e90613422565b80601f0160208091040260200160405190810160405280929190818152602001828054611b9a90613422565b8015611be55780601f10611bbc57610100808354040283529160200191611be5565b820191905f5260205f20905b815481529060010190602001808311611bc857829003601f168201915b50505050508152602001600182018054611bfe90613422565b80601f0160208091040260200160405190810160405280929190818152602001828054611c2a90613422565b8015611c755780601f10611c4c57610100808354040283529160200191611c75565b820191905f5260205f20905b815481529060010190602001808311611c5857829003601f168201915b50505050508152602001600282018054611c8e90613422565b80601f0160208091040260200160405190810160405280929190818152602001828054611cba90613422565b8015611d055780601f10611cdc57610100808354040283529160200191611d05565b820191905f5260205f20905b815481529060010190602001808311611ce857829003601f168201915b50505050508152602001600382015f9054906101000a900460ff161515151581526020016003820160019054906101000a900473ffffffffffffffffffffffffffffffffffffffff1673ffffffffffffffffffffffffffffffffffffffff1673ffffffffffffffffffffffffffffffffffffffff16815260200160048201548152602001600582015481526020016006820154815260200160078201548152505081526020019060010190611b3d565b50505050905090565b3373ffffffffffffffffffffffffffffffffffffffff1660015f9054906101000a900473ffffffffffffffffffffffffffffffffffffffff1673ffffffffffffffffffffffffffffffffffffffff1614611e4d576040517f08c379a0000000000000000000000000000000000000000000000000000000008152600401611e4490613a7b565b60405180910390fd5b611e777f14dd327f3834be9d0f7cf44f6cf11c96ded83bd68d1a1b3926d35739e7bb88d0826113f3565b15611eb7576040517f08c379a0000000000000000000000000000000000000000000000000000000008152600401611eae90613b09565b60405180910390fd5b611ee17f14dd327f3834be9d0f7cf44f6cf11c96ded83bd68d1a1b3926d35739e7bb88d082610557565b6040518060400160405280600a81526020017f617574686f72697a65720000000000000000000000000000000000000000000081525060065f8373ffffffffffffffffffffffffffffffffffffffff1673ffffffffffffffffffffffffffffffffffffffff1681526020019081526020015f209081611f6091906136ec565b50600781908060018154018082558091505060019003905f5260205f20015f9091909190916101000a81548173ffffffffffffffffffffffffffffffffffffffff021916908373ffffffffffffffffffffffffffffffffffffffff16021790555050565b611fcd82610535565b611fd6816121fa565b611fe083836122ef565b505050565b3373ffffffffffffffffffffffffffffffffffffffff1660015f9054906101000a900473ffffffffffffffffffffffffffffffffffffffff1673ffffffffffffffffffffffffffffffffffffffff1614612074576040517f08c379a000000000000000000000000000000000000000000000000000000000815260040161206b90613a7b565b60405180910390fd5b61209e7f14dd327f3834be9d0f7cf44f6cf11c96ded83bd68d1a1b3926d35739e7bb88d0826113f3565b6120dd576040517f08c379a00000000000000000000000000000000000000000000000000000000081526004016120d490613b97565b60405180910390fd5b6121077f14dd327f3834be9d0f7cf44f6cf11c96ded83bd68d1a1b3926d35739e7bb88d082611fc4565b60405180602001604052805f81525060065f8373ffffffffffffffffffffffffffffffffffffffff1673ffffffffffffffffffffffffffffffffffffffff1681526020019081526020015f20908161215f91906136ec565b5061216981612545565b50565b60015f9054906101000a900473ffffffffffffffffffffffffffffffffffffffff1681565b5f7f01ffc9a7000000000000000000000000000000000000000000000000000000007bffffffffffffffffffffffffffffffffffffffffffffffffffffffff1916827bffffffffffffffffffffffffffffffffffffffffffffffffffffffff1916149050919050565b61220b816122066122e8565b6126e2565b50565b61221882826113f3565b6122e45760015f808481526020019081526020015f205f015f8373ffffffffffffffffffffffffffffffffffffffff1673ffffffffffffffffffffffffffffffffffffffff1681526020019081526020015f205f6101000a81548160ff0219169083151502179055506122896122e8565b73ffffffffffffffffffffffffffffffffffffffff168173ffffffffffffffffffffffffffffffffffffffff16837f2f8788117e7eff1d82e926ec794901d17c78024a50270940304540a733656f0d60405160405180910390a45b5050565b5f33905090565b6122f982826113f3565b156123c5575f805f8481526020019081526020015f205f015f8373ffffffffffffffffffffffffffffffffffffffff1673ffffffffffffffffffffffffffffffffffffffff1681526020019081526020015f205f6101000a81548160ff02191690831515021790555061236a6122e8565b73ffffffffffffffffffffffffffffffffffffffff168173ffffffffffffffffffffffffffffffffffffffff16837ff6391f5c32d9c69d2a47ea670b442974b53935d1edc7fd64eb21e047a839171b60405160405180910390a45b5050565b5f6040516123d690612a26565b604051809103905ff0801580156123ef573d5f803e3d5ffd5b5090508073ffffffffffffffffffffffffffffffffffffffff1663e138633b8686868a338d6040518763ffffffff1660e01b815260040161243596959493929190613bb5565b5f604051808303815f87803b15801561244c575f80fd5b505af115801561245e573d5f803e3d5ffd5b50505050600381908060018154018082558091505060019003905f5260205f20015f9091909190916101000a81548173ffffffffffffffffffffffffffffffffffffffff021916908373ffffffffffffffffffffffffffffffffffffffff1602179055508673ffffffffffffffffffffffffffffffffffffffff167fc1874ceb058a3ec7f258267e9173d1380c026acf1b979694c6a269f30d0b4cfe8260055f8681526020019081526020015f2060020160055f8781526020019081526020015f20600101426040516125349493929190613c9c565b60405180910390a250505050505050565b5f5b6007805490508110156126de578173ffffffffffffffffffffffffffffffffffffffff166007828154811061257f5761257e6134ba565b5b905f5260205f20015f9054906101000a900473ffffffffffffffffffffffffffffffffffffffff1673ffffffffffffffffffffffffffffffffffffffff16036126cb5760016007805490506125d49190613ced565b81101561268257600760016007805490506125ef9190613ced565b81548110612600576125ff6134ba565b5b905f5260205f20015f9054906101000a900473ffffffffffffffffffffffffffffffffffffffff166007828154811061263c5761263b6134ba565b5b905f5260205f20015f6101000a81548173ffffffffffffffffffffffffffffffffffffffff021916908373ffffffffffffffffffffffffffffffffffffffff1602179055505b600780548061269457612693613d20565b5b600190038181905f5260205f20015f6101000a81549073ffffffffffffffffffffffffffffffffffffffff021916905590556126de565b80806126d6906137e8565b915050612547565b5050565b6126ec82826113f3565b612762576126f981612766565b612706835f1c6020612793565b604051602001612717929190613e1b565b6040516020818303038152906040526040517f08c379a00000000000000000000000000000000000000000000000000000000081526004016127599190613113565b60405180910390fd5b5050565b606061278c8273ffffffffffffffffffffffffffffffffffffffff16601460ff16612793565b9050919050565b60605f60028360026127a59190613e54565b6127af9190613e95565b67ffffffffffffffff8111156127c8576127c7613166565b5b6040519080825280601f01601f1916602001820160405280156127fa5781602001600182028036833780820191505090505b5090507f3000000000000000000000000000000000000000000000000000000000000000815f81518110612831576128306134ba565b5b60200101907effffffffffffffffffffffffffffffffffffffffffffffffffffffffffffff191690815f1a9053507f780000000000000000000000000000000000000000000000000000000000000081600181518110612894576128936134ba565b5b60200101907effffffffffffffffffffffffffffffffffffffffffffffffffffffffffffff191690815f1a9053505f60018460026128d29190613e54565b6128dc9190613e95565b90505b600181111561297b577f3031323334353637383961626364656600000000000000000000000000000000600f86166010811061291e5761291d6134ba565b5b1a60f81b828281518110612935576129346134ba565b5b60200101907effffffffffffffffffffffffffffffffffffffffffffffffffffffffffffff191690815f1a905350600485901c94508061297490613ec8565b90506128df565b505f84146129be576040517f08c379a00000000000000000000000000000000000000000000000000000000081526004016129b590613f39565b60405180910390fd5b8091505092915050565b6040518061012001604052806060815260200160608152602001606081526020015f151581526020015f73ffffffffffffffffffffffffffffffffffffffff1681526020015f81526020015f81526020015f81526020015f81525090565b61297080613f5883390190565b5f604051905090565b5f80fd5b5f80fd5b5f7fffffffff0000000000000000000000000000000000000000000000000000000082169050919050565b612a7881612a44565b8114612a82575f80fd5b50565b5f81359050612a9381612a6f565b92915050565b5f60208284031215612aae57612aad612a3c565b5b5f612abb84828501612a85565b91505092915050565b5f8115159050919050565b612ad881612ac4565b82525050565b5f602082019050612af15f830184612acf565b92915050565b5f819050919050565b612b0981612af7565b8114612b13575f80fd5b50565b5f81359050612b2481612b00565b92915050565b5f60208284031215612b3f57612b3e612a3c565b5b5f612b4c84828501612b16565b91505092915050565b5f73ffffffffffffffffffffffffffffffffffffffff82169050919050565b5f612b7e82612b55565b9050919050565b612b8e81612b74565b82525050565b5f602082019050612ba75f830184612b85565b92915050565b5f819050919050565b612bbf81612bad565b8114612bc9575f80fd5b50565b5f81359050612bda81612bb6565b92915050565b5f60208284031215612bf557612bf4612a3c565b5b5f612c0284828501612bcc565b91505092915050565b612c1481612bad565b82525050565b5f602082019050612c2d5f830184612c0b565b92915050565b612c3c81612af7565b82525050565b5f602082019050612c555f830184612c33565b92915050565b612c6481612b74565b8114612c6e575f80fd5b50565b5f81359050612c7f81612c5b565b92915050565b5f8060408385031215612c9b57612c9a612a3c565b5b5f612ca885828601612bcc565b9250506020612cb985828601612c71565b9150509250929050565b5f81519050919050565b5f82825260208201905092915050565b5f819050602082019050919050565b612cf581612b74565b82525050565b5f612d068383612cec565b60208301905092915050565b5f602082019050919050565b5f612d2882612cc3565b612d328185612ccd565b9350612d3d83612cdd565b805f5b83811015612d6d578151612d548882612cfb565b9750612d5f83612d12565b925050600181019050612d40565b5085935050505092915050565b5f6020820190508181035f830152612d928184612d1e565b905092915050565b5f81519050919050565b5f82825260208201905092915050565b5f5b83811015612dd1578082015181840152602081019050612db6565b5f8484015250505050565b5f601f19601f8301169050919050565b5f612df682612d9a565b612e008185612da4565b9350612e10818560208601612db4565b612e1981612ddc565b840191505092915050565b5f610120820190508181035f830152612e3d818c612dec565b90508181036020830152612e51818b612dec565b90508181036040830152612e65818a612dec565b9050612e746060830189612acf565b612e816080830188612b85565b612e8e60a0830187612c33565b612e9b60c0830186612c33565b612ea860e0830185612c33565b612eb6610100830184612c33565b9a9950505050505050505050565b5f8060408385031215612eda57612ed9612a3c565b5b5f612ee785828601612c71565b9250506020612ef885828601612b16565b9150509250929050565b5f81519050919050565b5f82825260208201905092915050565b5f819050602082019050919050565b5f82825260208201905092915050565b5f612f4582612d9a565b612f4f8185612f2b565b9350612f5f818560208601612db4565b612f6881612ddc565b840191505092915050565b612f7c81612ac4565b82525050565b612f8b81612af7565b82525050565b5f61012083015f8301518482035f860152612fac8282612f3b565b91505060208301518482036020860152612fc68282612f3b565b91505060408301518482036040860152612fe08282612f3b565b9150506060830151612ff56060860182612f73565b5060808301516130086080860182612cec565b5060a083015161301b60a0860182612f82565b5060c083015161302e60c0860182612f82565b5060e083015161304160e0860182612f82565b50610100830151613056610100860182612f82565b508091505092915050565b5f61306c8383612f91565b905092915050565b5f602082019050919050565b5f61308a82612f02565b6130948185612f0c565b9350836020820285016130a685612f1c565b805f5b858110156130e157848403895281516130c28582613061565b94506130cd83613074565b925060208a019950506001810190506130a9565b50829750879550505050505092915050565b5f6020820190508181035f83015261310b8184613080565b905092915050565b5f6020820190508181035f83015261312b8184612dec565b905092915050565b5f6020828403121561314857613147612a3c565b5b5f61315584828501612c71565b91505092915050565b5f80fd5b5f80fd5b7f4e487b71000000000000000000000000000000000000000000000000000000005f52604160045260245ffd5b61319c82612ddc565b810181811067ffffffffffffffff821117156131bb576131ba613166565b5b80604052505050565b5f6131cd612a33565b90506131d98282613193565b919050565b5f67ffffffffffffffff8211156131f8576131f7613166565b5b61320182612ddc565b9050602081019050919050565b828183375f83830152505050565b5f61322e613229846131de565b6131c4565b90508281526020810184848401111561324a57613249613162565b5b61325584828561320e565b509392505050565b5f82601f8301126132715761327061315e565b5b813561328184826020860161321c565b91505092915050565b5f805f805f8060c087890312156132a4576132a3612a3c565b5b5f6132b189828a01612b16565b96505060206132c289828a01612b16565b95505060406132d389828a01612b16565b945050606087013567ffffffffffffffff8111156132f4576132f3612a40565b5b61330089828a0161325d565b935050608087013567ffffffffffffffff81111561332157613320612a40565b5b61332d89828a0161325d565b92505060a087013567ffffffffffffffff81111561334e5761334d612a40565b5b61335a89828a0161325d565b9150509295509295509295565b7f416363657373436f6e74726f6c3a2063616e206f6e6c792072656e6f756e63655f8201527f20726f6c657320666f722073656c660000000000000000000000000000000000602082015250565b5f6133c1602f83612da4565b91506133cc82613367565b604082019050919050565b5f6020820190508181035f8301526133ee816133b5565b9050919050565b7f4e487b71000000000000000000000000000000000000000000000000000000005f52602260045260245ffd5b5f600282049050600182168061343957607f821691505b60208210810361344c5761344b6133f5565b5b50919050565b7f63616c6c6572206d75737420626520616e20417574686f72697a6572000000005f82015250565b5f613486601c83612da4565b915061349182613452565b602082019050919050565b5f6020820190508181035f8301526134b38161347a565b9050919050565b7f4e487b71000000000000000000000000000000000000000000000000000000005f52603260045260245ffd5b7f616c72656164792076616c6964617465640000000000000000000000000000005f82015250565b5f61351b601183612da4565b9150613526826134e7565b602082019050919050565b5f6020820190508181035f8301526135488161350f565b9050919050565b5f819050815f5260205f209050919050565b5f6020601f8301049050919050565b5f82821b905092915050565b5f600883026135ab7fffffffffffffffffffffffffffffffffffffffffffffffffffffffffffffffff82613570565b6135b58683613570565b95508019841693508086168417925050509392505050565b5f819050919050565b5f6135f06135eb6135e684612af7565b6135cd565b612af7565b9050919050565b5f819050919050565b613609836135d6565b61361d613615826135f7565b84845461357c565b825550505050565b5f90565b613631613625565b61363c818484613600565b505050565b5b8181101561365f576136545f82613629565b600181019050613642565b5050565b601f8211156136a4576136758161354f565b61367e84613561565b8101602085101561368d578190505b6136a161369985613561565b830182613641565b50505b505050565b5f82821c905092915050565b5f6136c45f19846008026136a9565b1980831691505092915050565b5f6136dc83836136b5565b9150826002028217905092915050565b6136f582612d9a565b67ffffffffffffffff81111561370e5761370d613166565b5b6137188254613422565b613723828285613663565b5f60209050601f831160018114613754575f8415613742578287015190505b61374c85826136d1565b8655506137b3565b601f1984166137628661354f565b5f5b8281101561378957848901518255600182019150602085019450602081019050613764565b868310156137a657848901516137a2601f8916826136b5565b8355505b6001600288020188555050505b505050505050565b7f4e487b71000000000000000000000000000000000000000000000000000000005f52601160045260245ffd5b5f6137f282612af7565b91507fffffffffffffffffffffffffffffffffffffffffffffffffffffffffffffffff8203613824576138236137bb565b5b600182019050919050565b7f50726f746f636f6c206e6f74206173736f6369617465642077697468207468695f8201527f7320616464726573730000000000000000000000000000000000000000000000602082015250565b5f613889602983612da4565b91506138948261382f565b604082019050919050565b5f6020820190508181035f8301526138b68161387d565b9050919050565b7f6f6e6c7920617574686f72697a6572732063616e2063616c6c207468697300005f82015250565b5f6138f1601e83612da4565b91506138fc826138bd565b602082019050919050565b5f6020820190508181035f83015261391e816138e5565b9050919050565b7f63616c6c657220697320616e2041646d696e00000000000000000000000000005f82015250565b5f613959601283612da4565b915061396482613925565b602082019050919050565b5f6020820190508181035f8301526139868161394d565b9050919050565b7f63616c6c657220697320616e20417574686f72697a65720000000000000000005f82015250565b5f6139c1601783612da4565b91506139cc8261398d565b602082019050919050565b5f6020820190508181035f8301526139ee816139b5565b9050919050565b5f606082019050613a085f830186612c33565b8181036020830152613a1a8185612dec565b9050613a296040830184612c33565b949350505050565b7f63616c6c6572206973206e6f7420616e2061646d696e000000000000000000005f82015250565b5f613a65601683612da4565b9150613a7082613a31565b602082019050919050565b5f6020820190508181035f830152613a9281613a59565b9050919050565b7f74686973206164647265737320697320616c726561647920616e20617574686f5f8201527f72697a6572000000000000000000000000000000000000000000000000000000602082015250565b5f613af3602583612da4565b9150613afe82613a99565b604082019050919050565b5f6020820190508181035f830152613b2081613ae7565b9050919050565b7f746869732061646472657373207761736e277420616e20617574686f72697a655f8201527f7200000000000000000000000000000000000000000000000000000000000000602082015250565b5f613b81602183612da4565b9150613b8c82613b27565b604082019050919050565b5f6020820190508181035f830152613bae81613b75565b9050919050565b5f60c082019050613bc85f830189612c33565b613bd56020830188612c33565b8181036040830152613be78187612dec565b9050613bf66060830186612c33565b613c036080830185612b85565b613c1060a0830184612b85565b979650505050505050565b5f8154613c2781613422565b613c318186612da4565b9450600182165f8114613c4b5760018114613c6157613c93565b60ff198316865281151560200286019350613c93565b613c6a8561354f565b5f5b83811015613c8b57815481890152600182019150602081019050613c6c565b808801955050505b50505092915050565b5f608082019050613caf5f830187612b85565b8181036020830152613cc18186613c1b565b90508181036040830152613cd58185613c1b565b9050613ce46060830184612c33565b95945050505050565b5f613cf782612af7565b9150613d0283612af7565b9250828203905081811115613d1a57613d196137bb565b5b92915050565b7f4e487b71000000000000000000000000000000000000000000000000000000005f52603160045260245ffd5b5f81905092915050565b7f416363657373436f6e74726f6c3a206163636f756e74200000000000000000005f82015250565b5f613d8b601783613d4d565b9150613d9682613d57565b601782019050919050565b5f613dab82612d9a565b613db58185613d4d565b9350613dc5818560208601612db4565b80840191505092915050565b7f206973206d697373696e6720726f6c65200000000000000000000000000000005f82015250565b5f613e05601183613d4d565b9150613e1082613dd1565b601182019050919050565b5f613e2582613d7f565b9150613e318285613da1565b9150613e3c82613df9565b9150613e488284613da1565b91508190509392505050565b5f613e5e82612af7565b9150613e6983612af7565b9250828202613e7781612af7565b91508282048414831517613e8e57613e8d6137bb565b5b5092915050565b5f613e9f82612af7565b9150613eaa83612af7565b9250828201905080821115613ec257613ec16137bb565b5b92915050565b5f613ed282612af7565b91505f8203613ee457613ee36137bb565b5b600182039050919050565b7f537472696e67733a20686578206c656e67746820696e73756666696369656e745f82015250565b5f613f23602083612da4565b9150613f2e82613eef565b602082019050919050565b5f6020820190508181035f830152613f5081613f17565b905091905056fe608060405234801561000f575f80fd5b505f600a5f6101000a81548160ff02191690831515021790555061293a806100365f395ff3fe608060405260043610610134575f3560e01c8063937e09b1116100aa578063d247f92b1161006e578063d247f92b146103fe578063d4b8399214610426578063dff42bc514610450578063e138633b1461047a578063ebca3fcb146104a2578063ed88c68e146104cc57610134565b8063937e09b11461031a5780639fb42b1f14610344578063bf6921581461036e578063ca0cdea814610398578063d09edf31146103d457610134565b8063590e1ae3116100fc578063590e1ae3146101fa5780636b610deb146102105780636f9fb98a1461024357806381d12c581461026d5780638b84590d146102ad5780638da5cb5b146102f057610134565b8063185af738146101385780631b16bb5c1461016257806329dcb0cf1461017e578063359cbbc9146101a85780634cb6f4a5146101d2575b5f80fd5b348015610143575f80fd5b5061014c6104d6565b6040516101599190611743565b60405180910390f35b61017c6004803603810190610177919061192d565b6104dc565b005b348015610189575f80fd5b5061019261070f565b60405161019f9190611743565b60405180910390f35b3480156101b3575f80fd5b506101bc610715565b6040516101c991906119b3565b60405180910390f35b3480156101dd575f80fd5b506101f860048036038101906101f391906119cc565b610727565b005b348015610205575f80fd5b5061020e6109d7565b005b34801561021b575f80fd5b50610224610c2e565b60405161023a9a99989796959493929190611a91565b60405180910390f35b34801561024e575f80fd5b50610257610d48565b6040516102649190611743565b60405180910390f35b348015610278575f80fd5b50610293600480360381019061028e91906119cc565b610d4f565b6040516102a4959493929190611b41565b60405180910390f35b3480156102b8575f80fd5b506102d360048036038101906102ce91906119cc565b610e32565b6040516102e7989796959493929190611b99565b60405180910390f35b3480156102fb575f80fd5b50610304610f98565b6040516103119190611c1c565b60405180910390f35b348015610325575f80fd5b5061032e610fbb565b60405161033b9190611743565b60405180910390f35b34801561034f575f80fd5b50610358610fc1565b6040516103659190611743565b60405180910390f35b348015610379575f80fd5b50610382610fc7565b60405161038f9190611c35565b60405180910390f35b3480156103a3575f80fd5b506103be60048036038101906103b99190611c7f565b611053565b6040516103cb9190611743565b60405180910390f35b3480156103df575f80fd5b506103e8611068565b6040516103f59190611c1c565b60405180910390f35b348015610409575f80fd5b50610424600480360381019061041f91906119cc565b61108d565b005b348015610431575f80fd5b5061043a611343565b6040516104479190611743565b60405180910390f35b34801561045b575f80fd5b50610464611349565b6040516104719190611743565b60405180910390f35b348015610485575f80fd5b506104a0600480360381019061049b9190611caa565b61134f565b005b3480156104ad575f80fd5b506104b661146d565b6040516104c39190611743565b60405180910390f35b6104d4611473565b005b60095481565b600a5f9054906101000a900460ff161561052b576040517f08c379a000000000000000000000000000000000000000000000000000000000815260040161052290611d99565b60405180910390fd5b5f8054906101000a900473ffffffffffffffffffffffffffffffffffffffff1673ffffffffffffffffffffffffffffffffffffffff163373ffffffffffffffffffffffffffffffffffffffff16146105b8576040517f08c379a00000000000000000000000000000000000000000000000000000000081526004016105af90611e27565b60405180910390fd5b600a5f9054906101000a900460ff1615610607576040517f08c379a00000000000000000000000000000000000000000000000000000000081526004016105fe90611e8f565b60405180910390fd5b600454421015801561061d575060055460065411155b61065c576040517f08c379a000000000000000000000000000000000000000000000000000000000815260040161065390611ef7565b60405180910390fd5b5f600b5f60085481526020019081526020015f20905083815f019081610682919061210f565b5082816004015f6101000a81548173ffffffffffffffffffffffffffffffffffffffff021916908373ffffffffffffffffffffffffffffffffffffffff1602179055508181600101819055505f816002015f6101000a81548160ff0219169083151502179055505f816003018190555060085f8154809291906107049061220b565b919050555050505050565b60045481565b600a5f9054906101000a900460ff1681565b600a5f9054906101000a900460ff1615610776576040517f08c379a000000000000000000000000000000000000000000000000000000000815260040161076d90611d99565b60405180910390fd5b5f600c5f3373ffffffffffffffffffffffffffffffffffffffff1673ffffffffffffffffffffffffffffffffffffffff1681526020019081526020015f2054116107f5576040517f08c379a00000000000000000000000000000000000000000000000000000000081526004016107ec906122c2565b60405180910390fd5b600a5f9054906101000a900460ff1615610844576040517f08c379a000000000000000000000000000000000000000000000000000000000815260040161083b90611e8f565b60405180910390fd5b5f600c5f3373ffffffffffffffffffffffffffffffffffffffff1673ffffffffffffffffffffffffffffffffffffffff1681526020019081526020015f2054116108c3576040517f08c379a00000000000000000000000000000000000000000000000000000000081526004016108ba9061232a565b60405180910390fd5b5f600b5f8381526020019081526020015f209050806005015f3373ffffffffffffffffffffffffffffffffffffffff1673ffffffffffffffffffffffffffffffffffffffff1681526020019081526020015f205f9054906101000a900460ff1615610963576040517f08c379a000000000000000000000000000000000000000000000000000000000815260040161095a90612392565b60405180910390fd5b6001816005015f3373ffffffffffffffffffffffffffffffffffffffff1673ffffffffffffffffffffffffffffffffffffffff1681526020019081526020015f205f6101000a81548160ff021916908315150217905550806003015f8154809291906109ce9061220b565b91905055505050565b600a5f9054906101000a900460ff1615610a26576040517f08c379a0000000000000000000000000000000000000000000000000000000008152600401610a1d90611d99565b60405180910390fd5b5f600c5f3373ffffffffffffffffffffffffffffffffffffffff1673ffffffffffffffffffffffffffffffffffffffff1681526020019081526020015f205411610aa5576040517f08c379a0000000000000000000000000000000000000000000000000000000008152600401610a9c906122c2565b60405180910390fd5b600a5f9054906101000a900460ff1615610af4576040517f08c379a0000000000000000000000000000000000000000000000000000000008152600401610aeb90611e8f565b60405180910390fd5b60045442108015610b085750600554600654105b610b47576040517f08c379a0000000000000000000000000000000000000000000000000000000008152600401610b3e906123fa565b60405180910390fd5b3373ffffffffffffffffffffffffffffffffffffffff166108fc600c5f3373ffffffffffffffffffffffffffffffffffffffff1673ffffffffffffffffffffffffffffffffffffffff1681526020019081526020015f205490811502906040515f60405180830381858888f19350505050158015610bc7573d5f803e3d5ffd5b505f600c5f3373ffffffffffffffffffffffffffffffffffffffff1673ffffffffffffffffffffffffffffffffffffffff1681526020019081526020015f20819055505f4703610c2c576001600a5f6101000a81548160ff0219169083151502179055505b565b5f60605f805f805f805f8060015f9054906101000a900473ffffffffffffffffffffffffffffffffffffffff1660026005546004546003546006546007546008545f8054906101000a900473ffffffffffffffffffffffffffffffffffffffff16600a5f9054906101000a900460ff16888054610caa90611f42565b80601f0160208091040260200160405190810160405280929190818152602001828054610cd690611f42565b8015610d215780601f10610cf857610100808354040283529160200191610d21565b820191905f5260205f20905b815481529060010190602001808311610d0457829003601f168201915b50505050509850995099509950995099509950995099509950995090919293949596979899565b5f47905090565b600b602052805f5260405f205f91509050805f018054610d6e90611f42565b80601f0160208091040260200160405190810160405280929190818152602001828054610d9a90611f42565b8015610de55780601f10610dbc57610100808354040283529160200191610de5565b820191905f5260205f20905b815481529060010190602001808311610dc857829003601f168201915b505050505090806001015490806002015f9054906101000a900460ff1690806003015490806004015f9054906101000a900473ffffffffffffffffffffffffffffffffffffffff16905085565b5f805f805f60605f80600954600b5f8b81526020019081526020015f206002015f9054906101000a900460ff16600b5f8c81526020019081526020015f2060010154600b5f8d81526020019081526020015f206004015f9054906101000a900473ffffffffffffffffffffffffffffffffffffffff16600b5f8e81526020019081526020015f2060030154600b5f8f81526020019081526020015f205f015f8054906101000a900473ffffffffffffffffffffffffffffffffffffffff16600754828054610eff90611f42565b80601f0160208091040260200160405190810160405280929190818152602001828054610f2b90611f42565b8015610f765780601f10610f4d57610100808354040283529160200191610f76565b820191905f5260205f20905b815481529060010190602001808311610f5957829003601f168201915b5050505050925097509750975097509750975097509750919395975091939597565b5f8054906101000a900473ffffffffffffffffffffffffffffffffffffffff1681565b60035481565b60085481565b60028054610fd490611f42565b80601f016020809104026020016040519081016040528092919081815260200182805461100090611f42565b801561104b5780601f106110225761010080835404028352916020019161104b565b820191905f5260205f20905b81548152906001019060200180831161102e57829003601f168201915b505050505081565b600c602052805f5260405f205f915090505481565b60015f9054906101000a900473ffffffffffffffffffffffffffffffffffffffff1681565b600a5f9054906101000a900460ff16156110dc576040517f08c379a00000000000000000000000000000000000000000000000000000000081526004016110d390611d99565b60405180910390fd5b5f8054906101000a900473ffffffffffffffffffffffffffffffffffffffff1673ffffffffffffffffffffffffffffffffffffffff163373ffffffffffffffffffffffffffffffffffffffff1614611169576040517f08c379a000000000000000000000000000000000000000000000000000000000815260040161116090611e27565b60405180910390fd5b600a5f9054906101000a900460ff16156111b8576040517f08c379a00000000000000000000000000000000000000000000000000000000081526004016111af90611e8f565b60405180910390fd5b60055460065411156111ff576040517f08c379a00000000000000000000000000000000000000000000000000000000081526004016111f690612462565b60405180910390fd5b5f600b5f8381526020019081526020015f209050806002015f9054906101000a900460ff1615611264576040517f08c379a000000000000000000000000000000000000000000000000000000000815260040161125b906124f0565b60405180910390fd5b6002600754611273919061253b565b8160030154116112b8576040517f08c379a00000000000000000000000000000000000000000000000000000000081526004016112af906125b5565b60405180910390fd5b806004015f9054906101000a900473ffffffffffffffffffffffffffffffffffffffff1673ffffffffffffffffffffffffffffffffffffffff166108fc826001015490811502906040515f60405180830381858888f19350505050158015611322573d5f803e3d5ffd5b506001816002015f6101000a81548160ff0219169083151502179055505050565b60055481565b60075481565b5f60095414611393576040517f08c379a000000000000000000000000000000000000000000000000000000000815260040161138a90612643565b60405180910390fd5b805f806101000a81548173ffffffffffffffffffffffffffffffffffffffff021916908373ffffffffffffffffffffffffffffffffffffffff160217905550856005819055508460038190555083600290816113ef919061210f565b50603c836113fd9190612661565b4261140891906126a2565b6004819055508160015f6101000a81548173ffffffffffffffffffffffffffffffffffffffff021916908373ffffffffffffffffffffffffffffffffffffffff16021790555060095f8154809291906114609061220b565b9190505550505050505050565b60065481565b60045442106114b7576040517f08c379a00000000000000000000000000000000000000000000000000000000081526004016114ae9061271f565b60405180910390fd5b3373ffffffffffffffffffffffffffffffffffffffff165f8054906101000a900473ffffffffffffffffffffffffffffffffffffffff1673ffffffffffffffffffffffffffffffffffffffff1603611544576040517f08c379a000000000000000000000000000000000000000000000000000000000815260040161153b90612787565b60405180910390fd5b600554341115611589576040517f08c379a0000000000000000000000000000000000000000000000000000000008152600401611580906127ef565b60405180910390fd5b5f600854146115cd576040517f08c379a00000000000000000000000000000000000000000000000000000000081526004016115c490612857565b60405180910390fd5b600354341015611612576040517f08c379a0000000000000000000000000000000000000000000000000000000008152600401611609906128bf565b60405180910390fd5b5f600c5f3373ffffffffffffffffffffffffffffffffffffffff1673ffffffffffffffffffffffffffffffffffffffff1681526020019081526020015f20540361166e5760075f8154809291906116689061220b565b91905055505b34600c5f3373ffffffffffffffffffffffffffffffffffffffff1673ffffffffffffffffffffffffffffffffffffffff1681526020019081526020015f205f8282546116ba91906126a2565b925050819055503460065f8282546116d291906126a2565b925050819055503373ffffffffffffffffffffffffffffffffffffffff167f9da4df50e7597f76ae3248159a04907f48b0fc62ed1c8b2ed2a33dc6af002af434426040516117219291906128dd565b60405180910390a2565b5f819050919050565b61173d8161172b565b82525050565b5f6020820190506117565f830184611734565b92915050565b5f604051905090565b5f80fd5b5f80fd5b5f80fd5b5f80fd5b5f601f19601f8301169050919050565b7f4e487b71000000000000000000000000000000000000000000000000000000005f52604160045260245ffd5b6117bb82611775565b810181811067ffffffffffffffff821117156117da576117d9611785565b5b80604052505050565b5f6117ec61175c565b90506117f882826117b2565b919050565b5f67ffffffffffffffff82111561181757611816611785565b5b61182082611775565b9050602081019050919050565b828183375f83830152505050565b5f61184d611848846117fd565b6117e3565b90508281526020810184848401111561186957611868611771565b5b61187484828561182d565b509392505050565b5f82601f8301126118905761188f61176d565b5b81356118a084826020860161183b565b91505092915050565b5f73ffffffffffffffffffffffffffffffffffffffff82169050919050565b5f6118d2826118a9565b9050919050565b6118e2816118c8565b81146118ec575f80fd5b50565b5f813590506118fd816118d9565b92915050565b61190c8161172b565b8114611916575f80fd5b50565b5f8135905061192781611903565b92915050565b5f805f6060848603121561194457611943611765565b5b5f84013567ffffffffffffffff81111561196157611960611769565b5b61196d8682870161187c565b935050602061197e868287016118ef565b925050604061198f86828701611919565b9150509250925092565b5f8115159050919050565b6119ad81611999565b82525050565b5f6020820190506119c65f8301846119a4565b92915050565b5f602082840312156119e1576119e0611765565b5b5f6119ee84828501611919565b91505092915050565b5f611a01826118a9565b9050919050565b611a11816119f7565b82525050565b5f81519050919050565b5f82825260208201905092915050565b5f5b83811015611a4e578082015181840152602081019050611a33565b5f8484015250505050565b5f611a6382611a17565b611a6d8185611a21565b9350611a7d818560208601611a31565b611a8681611775565b840191505092915050565b5f61014082019050611aa55f83018d611a08565b8181036020830152611ab7818c611a59565b9050611ac6604083018b611734565b611ad3606083018a611734565b611ae06080830189611734565b611aed60a0830188611734565b611afa60c0830187611734565b611b0760e0830186611734565b611b15610100830185611a08565b611b236101208301846119a4565b9b9a5050505050505050505050565b611b3b816118c8565b82525050565b5f60a0820190508181035f830152611b598188611a59565b9050611b686020830187611734565b611b7560408301866119a4565b611b826060830185611734565b611b8f6080830184611b32565b9695505050505050565b5f61010082019050611bad5f83018b611734565b611bba602083018a6119a4565b611bc76040830189611734565b611bd46060830188611a08565b611be16080830187611734565b81810360a0830152611bf38186611a59565b9050611c0260c0830185611a08565b611c0f60e0830184611734565b9998505050505050505050565b5f602082019050611c2f5f830184611a08565b92915050565b5f6020820190508181035f830152611c4d8184611a59565b905092915050565b611c5e816119f7565b8114611c68575f80fd5b50565b5f81359050611c7981611c55565b92915050565b5f60208284031215611c9457611c93611765565b5b5f611ca184828501611c6b565b91505092915050565b5f805f805f8060c08789031215611cc457611cc3611765565b5b5f611cd189828a01611919565b9650506020611ce289828a01611919565b955050604087013567ffffffffffffffff811115611d0357611d02611769565b5b611d0f89828a0161187c565b9450506060611d2089828a01611919565b9350506080611d3189828a01611c6b565b92505060a0611d4289828a01611c6b565b9150509295509295509295565b7f636f6e7472616374206973206e6f7420617661696c61626c65000000000000005f82015250565b5f611d83601983611a21565b9150611d8e82611d4f565b602082019050919050565b5f6020820190508181035f830152611db081611d77565b9050919050565b7f4f6e6c79206f776e65722063616e2063616c6c20746869732066756e6374696f5f8201527f6e00000000000000000000000000000000000000000000000000000000000000602082015250565b5f611e11602183611a21565b9150611e1c82611db7565b604082019050919050565b5f6020820190508181035f830152611e3e81611e05565b9050919050565b7f636f6e74726163742069732064657374726f79656400000000000000000000005f82015250565b5f611e79601583611a21565b9150611e8482611e45565b602082019050919050565b5f6020820190508181035f830152611ea681611e6d565b9050919050565b7f446f65736e2774206d65657420726571756573742063726974657269610000005f82015250565b5f611ee1601d83611a21565b9150611eec82611ead565b602082019050919050565b5f6020820190508181035f830152611f0e81611ed5565b9050919050565b7f4e487b71000000000000000000000000000000000000000000000000000000005f52602260045260245ffd5b5f6002820490506001821680611f5957607f821691505b602082108103611f6c57611f6b611f15565b5b50919050565b5f819050815f5260205f209050919050565b5f6020601f8301049050919050565b5f82821b905092915050565b5f60088302611fce7fffffffffffffffffffffffffffffffffffffffffffffffffffffffffffffffff82611f93565b611fd88683611f93565b95508019841693508086168417925050509392505050565b5f819050919050565b5f61201361200e6120098461172b565b611ff0565b61172b565b9050919050565b5f819050919050565b61202c83611ff9565b6120406120388261201a565b848454611f9f565b825550505050565b5f90565b612054612048565b61205f818484612023565b505050565b5b81811015612082576120775f8261204c565b600181019050612065565b5050565b601f8211156120c75761209881611f72565b6120a184611f84565b810160208510156120b0578190505b6120c46120bc85611f84565b830182612064565b50505b505050565b5f82821c905092915050565b5f6120e75f19846008026120cc565b1980831691505092915050565b5f6120ff83836120d8565b9150826002028217905092915050565b61211882611a17565b67ffffffffffffffff81111561213157612130611785565b5b61213b8254611f42565b612146828285612086565b5f60209050601f831160018114612177575f8415612165578287015190505b61216f85826120f4565b8655506121d6565b601f19841661218586611f72565b5f5b828110156121ac57848901518255600182019150602085019450602081019050612187565b868310156121c957848901516121c5601f8916826120d8565b8355505b6001600288020188555050505b505050505050565b7f4e487b71000000000000000000000000000000000000000000000000000000005f52601160045260245ffd5b5f6122158261172b565b91507fffffffffffffffffffffffffffffffffffffffffffffffffffffffffffffffff8203612247576122466121de565b5b600182019050919050565b7f4f6e6c7920646f6e6f72732063616e2063616c6c20746869732066756e6374695f8201527f6f6e000000000000000000000000000000000000000000000000000000000000602082015250565b5f6122ac602283611a21565b91506122b782612252565b604082019050919050565b5f6020820190508181035f8301526122d9816122a0565b9050919050565b7f596f75206d757374206265206120636f6e7472696275746f72000000000000005f82015250565b5f612314601983611a21565b915061231f826122e0565b602082019050919050565b5f6020820190508181035f83015261234181612308565b9050919050565b7f596f75206861766520616c726561647920766f746564000000000000000000005f82015250565b5f61237c601683611a21565b915061238782612348565b602082019050919050565b5f6020820190508181035f8301526123a981612370565b9050919050565b7f596f7520617265206e6f7420656c696769626c6520666f7220726566756e64005f82015250565b5f6123e4601f83611a21565b91506123ef826123b0565b602082019050919050565b5f6020820190508181035f830152612411816123d8565b9050919050565b7f546172676574206e6f74206d65740000000000000000000000000000000000005f82015250565b5f61244c600e83611a21565b915061245782612418565b602082019050919050565b5f6020820190508181035f83015261247981612440565b9050919050565b7f54686520726571756573742068617320616c7265616479206265656e20636f6d5f8201527f706c657465640000000000000000000000000000000000000000000000000000602082015250565b5f6124da602683611a21565b91506124e582612480565b604082019050919050565b5f6020820190508181035f830152612507816124ce565b9050919050565b7f4e487b71000000000000000000000000000000000000000000000000000000005f52601260045260245ffd5b5f6125458261172b565b91506125508361172b565b9250826125605761255f61250e565b5b828204905092915050565b7f4d616a6f7269747920646f6573206e6f7420737570706f7274000000000000005f82015250565b5f61259f601983611a21565b91506125aa8261256b565b602082019050919050565b5f6020820190508181035f8301526125cc81612593565b9050919050565b7f6f6e6c79206f6e652074656e6465722063616e206265207265676973746572655f8201527f6400000000000000000000000000000000000000000000000000000000000000602082015250565b5f61262d602183611a21565b9150612638826125d3565b604082019050919050565b5f6020820190508181035f83015261265a81612621565b9050919050565b5f61266b8261172b565b91506126768361172b565b92508282026126848161172b565b9150828204841483151761269b5761269a6121de565b5b5092915050565b5f6126ac8261172b565b91506126b78361172b565b92508282019050808211156126cf576126ce6121de565b5b92915050565b7f446f6e6174696f6e20706572696f64206973206f7665720000000000000000005f82015250565b5f612709601783611a21565b9150612714826126d5565b602082019050919050565b5f6020820190508181035f830152612736816126fd565b9050919050565b7f4f776e65722063616e277420646f6e61746520746f2073656c660000000000005f82015250565b5f612771601a83611a21565b915061277c8261273d565b602082019050919050565b5f6020820190508181035f83015261279e81612765565b9050919050565b7f446f6e6174696f6e2065786365656473207461726765740000000000000000005f82015250565b5f6127d9601783611a21565b91506127e4826127a5565b602082019050919050565b5f6020820190508181035f830152612806816127cd565b9050919050565b7f526169736564207461726765742068617320616c7265616479206d65740000005f82015250565b5f612841601d83611a21565b915061284c8261280d565b602082019050919050565b5f6020820190508181035f83015261286e81612835565b9050919050565b7f4d696e696d756d20646f6e6174696f6e206e6f74206d657400000000000000005f82015250565b5f6128a9601883611a21565b91506128b482612875565b602082019050919050565b5f6020820190508181035f8301526128d68161289d565b9050919050565b5f6040820190506128f05f830185611734565b6128fd6020830184611734565b939250505056fea2646970667358221220210e13d963b115ef191856567ca4fe27724847f4b4858107a7112bd9821b051464736f6c63430008150033a2646970667358221220472a1e5827d89cb4e80f95b486b559ab4cd5f01bf8a20194f217d31e2c0e1ad364736f6c63430008150033",
  "immutableReferences": {},
  "source": "// SPDX-License-Identifier: MIT\r\npragma solidity ^0.8.11;\r\n\r\nimport \"@openzeppelin/contracts/access/AccessControl.sol\";\r\n\r\n/// @title Factory for Tender\r\n/// @author Rekha Aryal\r\n/// @notice You can use this contract to generate multiple tenders and act upon them based on the roles provided.\r\ncontract TenderFactory is AccessControl {\r\n    bytes32 public constant AUTHORIZER_ROLE = keccak256(\"AUTHORIZER_ROLE\");\r\n\r\n    address public admin;\r\n    uint public index;\r\n\r\n    // Only contains registered tender addresses after deployment.\r\n    address[] deployedAuthorizedTenders;\r\n\r\n    event CreatedTender(\r\n        address indexed owner,\r\n        address deployedTender,\r\n        string category,\r\n        string image,\r\n        uint createTime\r\n    );\r\n    event RegisteredProtocol(\r\n        uint regNumber,\r\n        address indexed client,\r\n        string pdf,\r\n        uint registeredTime\r\n    );\r\n\r\n    constructor() {\r\n         admin=msg.sender;\r\n        roles[msg.sender]=\"admin\";\r\n                _grantRole(DEFAULT_ADMIN_ROLE, msg.sender);\r\n\r\n    }\r\n\r\n    struct Protocol {\r\n        string url;\r\n        string image;\r\n        string category;\r\n        bool validated;\r\n        address beneficiary;\r\n        uint deadline;\r\n        uint minimumContribution;\r\n        uint target;\r\n        uint number;\r\n    }\r\n\r\n    mapping(address => Protocol[]) public protocols;\r\n    mapping(uint => Protocol) public protocolTrack;\r\n    mapping(address => string) public roles;\r\n\r\n    address[] public authorizers;\r\n\r\n    modifier onlyAdmin() {\r\n        require(admin == msg.sender, \"caller is not an admin\");\r\n        _;\r\n    }\r\n\r\n    /// @dev Registers the protocol for validation of a specific beneficiary.\r\n    function registerProtocol(\r\n        uint _min,\r\n        uint _deadline,\r\n        uint _target,\r\n        string memory _url,\r\n        string memory _image,\r\n        string memory _category\r\n    ) public {\r\n        require(!hasRole(DEFAULT_ADMIN_ROLE, msg.sender), \"caller is an Admin\");\r\n        require(!hasRole(AUTHORIZER_ROLE, msg.sender), \"caller is an Authorizer\");\r\n\r\n        Protocol memory item = Protocol({\r\n            url: _url,\r\n            beneficiary: msg.sender,\r\n            category: _category,\r\n            validated: false,\r\n            minimumContribution: _min,\r\n            target: _target,\r\n            deadline: _deadline,\r\n            image: _image,\r\n            number: index\r\n        });\r\n\r\n        protocols[msg.sender].push(item);\r\n        protocolTrack[index] = item;\r\n\r\n        emit RegisteredProtocol(index, msg.sender, _url, block.timestamp);\r\n        index++;\r\n    }\r\n\r\n    /// @dev Internal function to create tender after the validation of protocol by authorizer.\r\n    function createTender(\r\n        address creator,\r\n        uint _deadline1,\r\n        uint _target,\r\n        uint _minimum,\r\n        string memory _PdfUrl,\r\n        uint num\r\n    ) internal {\r\n        Tender tenderPointer = new Tender();\r\n        tenderPointer.registerTender(\r\n            _target,\r\n            _minimum,\r\n            _PdfUrl,\r\n            _deadline1,\r\n            msg.sender,\r\n            creator\r\n        );\r\n        deployedAuthorizedTenders.push(address(tenderPointer));\r\n\r\n        emit CreatedTender(creator, address(tenderPointer), protocolTrack[num].category, protocolTrack[num].image, block.timestamp);\r\n    }\r\n\r\n    /// @dev Authorizer uses this function to validate the protocols.\r\n    function validateProtocol(address _client, uint protocolNum) public {\r\n        require(hasRole(AUTHORIZER_ROLE, msg.sender), \"caller must be an Authorizer\");\r\n\r\n        Protocol[] storage list = protocols[_client];\r\n        Protocol memory ProtocolItem;\r\n        bool protocolFound = false;\r\n\r\n        for (uint i = 0; i < list.length; i++) {\r\n            if (list[i].number == protocolNum) {\r\n                require(!list[i].validated, \"already validated\");\r\n                ProtocolItem = list[i];\r\n                ProtocolItem.validated = true;\r\n                protocolTrack[protocolNum] = ProtocolItem;\r\n                protocols[_client][i] = ProtocolItem;\r\n                protocolFound = true;\r\n            }\r\n        }\r\n\r\n        require(protocolFound, \"Protocol not associated with this address\");\r\n\r\n        createTender(_client, ProtocolItem.deadline, ProtocolItem.target, ProtocolItem.minimumContribution, ProtocolItem.url, protocolNum);\r\n    }\r\n\r\n    function getProtocol() public view returns (Protocol[] memory) {\r\n        return protocols[msg.sender];\r\n    }\r\n\r\n    /// @dev Admin can grant role to other accounts for the role of authorizer.\r\n    function grantAuthorityRole(address _account) public onlyAdmin {\r\n        require(!hasRole(AUTHORIZER_ROLE, _account), \"this address is already an authorizer\");\r\n        grantRole(AUTHORIZER_ROLE, _account);\r\n        roles[_account] = \"authorizer\";\r\n        authorizers.push(_account);\r\n    }\r\n\r\n    function revokeAuthorityRole(address _account) public onlyAdmin {\r\n        require(hasRole(AUTHORIZER_ROLE, _account), \"this address wasn't an authorizer\");\r\n        revokeRole(AUTHORIZER_ROLE, _account);\r\n        roles[_account] = \"\";\r\n\r\n        filterAuthorizerArray(_account);\r\n    }\r\n\r\n    function filterAuthorizerArray(address acc) internal {\r\n        for (uint i = 0; i < authorizers.length; i++) {\r\n            if (authorizers[i] == acc) {\r\n                if (i < (authorizers.length - 1)) {\r\n                    authorizers[i] = authorizers[authorizers.length - 1];\r\n                }\r\n                authorizers.pop();\r\n                break;\r\n            }\r\n        }\r\n    }\r\n\r\n    function getCurrentAuthorizers() public view returns (address[] memory) {\r\n        return authorizers;\r\n    }\r\n\r\n    function getYourRole() public view returns (string memory) {\r\n        return roles[msg.sender];\r\n    }\r\n\r\n    function getDeployedTenders() public view returns (address[] memory) {\r\n        return deployedAuthorizedTenders;\r\n    }\r\n\r\n    function getUnauthorizedProtocols() public view returns (Protocol[] memory) {\r\n        require(hasRole(AUTHORIZER_ROLE, msg.sender), \"only authorizers can call this\");\r\n\r\n        Protocol[] memory lists = new Protocol[](index);\r\n        uint counter = 0;\r\n        for (uint i = 0; i < index; i++) {\r\n            if (!protocolTrack[i].validated) {\r\n                lists[counter] = protocolTrack[i];\r\n                counter++;\r\n            }\r\n        }\r\n        return lists;\r\n    }\r\n}\r\n\r\ncontract Tender {\r\n    address public owner;\r\n    address public authorizer;\r\n    string public pdfUrl;\r\n    uint256 public minimumContribution;\r\n    uint public deadline;\r\n    uint256 public target;\r\n    uint256 public raisedTarget;\r\n    uint256 public noOfDonors;\r\n    uint256 public numRequests;\r\n    uint256 public numOfRegisteredTender;\r\n    bool public destroyed;\r\n\r\n    event DonorEvent(address indexed donor, uint amount, uint time);\r\n\r\n    constructor() {\r\n        destroyed = false;\r\n    }\r\n\r\n    struct Request {\r\n        string description;\r\n        uint256 value;\r\n        bool completed;\r\n        uint256 noOfVoters;\r\n        address payable recipient;\r\n        mapping(address => bool) voters;\r\n    }\r\n\r\n    mapping(uint256 => Request) public requests;\r\n    mapping(address => uint256) public donors;\r\n\r\n    modifier onlyOwner() {\r\n        require(!destroyed, \"contract is not available\");\r\n        require(msg.sender == owner, \"Only owner can call this function\");\r\n        _;\r\n    }\r\n\r\n    modifier onlyDonor() {\r\n        require(!destroyed, \"contract is not available\");\r\n        require(donors[msg.sender] > 0, \"Only donors can call this function\");\r\n        _;\r\n    }\r\n\r\n    modifier shouldNotDestroy() {\r\n        require(!destroyed, \"contract is destroyed\");\r\n        _;\r\n    }\r\n\r\n    /// @dev Register tender with details.\r\n    function registerTender(\r\n        uint256 _target,\r\n        uint256 _minimum,\r\n        string memory _url,\r\n        uint _deadline,\r\n        address _authorizer,\r\n        address _beneficiary\r\n    ) external {\r\n        require(numOfRegisteredTender == 0, \"only one tender can be registered\");\r\n        owner = _beneficiary;\r\n        target = _target;\r\n        minimumContribution = _minimum;\r\n        pdfUrl = _url;\r\n        deadline = block.timestamp + _deadline * 60;\r\n        authorizer = _authorizer;\r\n        numOfRegisteredTender++;\r\n    }\r\n\r\n    /// @dev Donate to the tender.\r\n    function donate() public payable {\r\n        require(block.timestamp < deadline, \"Donation period is over\");\r\n        require(owner != msg.sender, \"Owner can't donate to self\");\r\n        require(msg.value <= target, \"Donation exceeds target\");\r\n        require(numRequests == 0, \"Raised target has already met\");\r\n\r\n        require(msg.value >= minimumContribution, \"Minimum donation not met\");\r\n\r\n        if (donors[msg.sender] == 0) {\r\n            noOfDonors++;\r\n        }\r\n        donors[msg.sender] += msg.value;\r\n        raisedTarget += msg.value;\r\n        emit DonorEvent(msg.sender, msg.value, block.timestamp);\r\n    }\r\n\r\n    /// @dev Refund for donors if criteria are met.\r\n    function refund() public onlyDonor shouldNotDestroy {\r\n        require(block.timestamp < deadline && raisedTarget < target, \"You are not eligible for refund\");\r\n        payable(msg.sender).transfer(donors[msg.sender]);\r\n        donors[msg.sender] = 0;\r\n        if (address(this).balance == 0) {\r\n            destroyed = true;\r\n        }\r\n    }\r\n\r\n    /// @dev Returns the current state of the tender.\r\n    function readTenderStatus()\r\n        public\r\n        view\r\n        returns (\r\n            address,\r\n            string memory,\r\n            uint,\r\n            uint,\r\n            uint,\r\n            uint,\r\n            uint,\r\n            uint,\r\n            address,\r\n            bool\r\n        )\r\n    {\r\n        return (\r\n            authorizer,\r\n            pdfUrl,\r\n            target,\r\n            deadline,\r\n            minimumContribution,\r\n            raisedTarget,\r\n            noOfDonors,\r\n            numRequests,\r\n            owner,\r\n            destroyed\r\n        );\r\n    }\r\n\r\n    /// @dev Create a request for fund usage.\r\n    function createRequest(\r\n        string memory _description,\r\n        address payable _recipient,\r\n        uint256 _value\r\n    ) public payable onlyOwner shouldNotDestroy {\r\n        // @todo\r\n        require(block.timestamp >= deadline && raisedTarget <= target, \"Doesn't meet request criteria\");\r\n        Request storage newRequest = requests[numRequests];\r\n        newRequest.description = _description;\r\n        newRequest.recipient = _recipient;\r\n        newRequest.value = _value;\r\n        newRequest.completed = false;\r\n        newRequest.noOfVoters = 0;\r\n        numRequests++;\r\n    }\r\n\r\n    /// @dev Donors vote for a request.\r\n    function voteRequest(uint256 _requestNo) public onlyDonor shouldNotDestroy {\r\n        require(donors[msg.sender] > 0, \"You must be a contributor\");\r\n        Request storage thisRequest = requests[_requestNo];\r\n        require(!thisRequest.voters[msg.sender], \"You have already voted\");\r\n\r\n        thisRequest.voters[msg.sender] = true;\r\n        thisRequest.noOfVoters++;\r\n    }\r\n\r\n    /// @dev Settle a request after sufficient votes.\r\n    function settleRequest(uint256 _requestNo) public onlyOwner shouldNotDestroy {\r\n        require(raisedTarget <= target, \"Target not met\");\r\n        Request storage thisRequest = requests[_requestNo];\r\n        require(!thisRequest.completed, \"The request has already been completed\");\r\n        require(thisRequest.noOfVoters > noOfDonors / 2, \"Majority does not support\");\r\n\r\n        thisRequest.recipient.transfer(thisRequest.value);\r\n        thisRequest.completed = true;\r\n    }\r\n    function getRequeststatus(uint256 _i)\r\n        public\r\n        view\r\n        returns (\r\n            uint256,\r\n            bool,\r\n            uint256,\r\n            address,\r\n            uint256,\r\n            string memory,\r\n            address,\r\n            uint256\r\n        )\r\n    {\r\n        return (\r\n            numOfRegisteredTender,\r\n            requests[_i].completed,\r\n            requests[_i].value,\r\n            requests[_i].recipient,\r\n            requests[_i].noOfVoters,\r\n            requests[_i].description,\r\n            owner,\r\n            noOfDonors\r\n        );\r\n    }\r\n\r\n    function getContractBalance() public view returns (uint) {\r\n        return address(this).balance;\r\n    }\r\n}",
  "sourcePath": "C:\\Users\\User\\Desktop\\DonorChain\\contracts\\Donorchain.sol",
  "compiler": {
    "name": "solc",
    "version": "0.8.21+commit.d9974bed.Emscripten.clang"
  },
  "schemaVersion": "3.4.16",
  "updatedAt": "2025-03-03T15:14:12.848Z",
  "devdoc": {
    "author": "Rekha Aryal",
    "events": {
      "RoleAdminChanged(bytes32,bytes32,bytes32)": {
        "details": "Emitted when `newAdminRole` is set as ``role``'s admin role, replacing `previousAdminRole` `DEFAULT_ADMIN_ROLE` is the starting admin for all roles, despite {RoleAdminChanged} not being emitted signaling this. _Available since v3.1._"
      },
      "RoleGranted(bytes32,address,address)": {
        "details": "Emitted when `account` is granted `role`. `sender` is the account that originated the contract call, an admin role bearer except when using {AccessControl-_setupRole}."
      },
      "RoleRevoked(bytes32,address,address)": {
        "details": "Emitted when `account` is revoked `role`. `sender` is the account that originated the contract call:   - if using `revokeRole`, it is the admin role bearer   - if using `renounceRole`, it is the role bearer (i.e. `account`)"
      }
    },
    "kind": "dev",
    "methods": {
      "getRoleAdmin(bytes32)": {
        "details": "Returns the admin role that controls `role`. See {grantRole} and {revokeRole}. To change a role's admin, use {_setRoleAdmin}."
      },
      "grantAuthorityRole(address)": {
        "details": "Admin can grant role to other accounts for the role of authorizer."
      },
      "grantRole(bytes32,address)": {
        "details": "Grants `role` to `account`. If `account` had not been already granted `role`, emits a {RoleGranted} event. Requirements: - the caller must have ``role``'s admin role. May emit a {RoleGranted} event."
      },
      "hasRole(bytes32,address)": {
        "details": "Returns `true` if `account` has been granted `role`."
      },
      "registerProtocol(uint256,uint256,uint256,string,string,string)": {
        "details": "Registers the protocol for validation of a specific beneficiary."
      },
      "renounceRole(bytes32,address)": {
        "details": "Revokes `role` from the calling account. Roles are often managed via {grantRole} and {revokeRole}: this function's purpose is to provide a mechanism for accounts to lose their privileges if they are compromised (such as when a trusted device is misplaced). If the calling account had been revoked `role`, emits a {RoleRevoked} event. Requirements: - the caller must be `account`. May emit a {RoleRevoked} event."
      },
      "revokeRole(bytes32,address)": {
        "details": "Revokes `role` from `account`. If `account` had been granted `role`, emits a {RoleRevoked} event. Requirements: - the caller must have ``role``'s admin role. May emit a {RoleRevoked} event."
      },
      "supportsInterface(bytes4)": {
        "details": "See {IERC165-supportsInterface}."
      },
      "validateProtocol(address,uint256)": {
        "details": "Authorizer uses this function to validate the protocols."
      }
    },
    "title": "Factory for Tender",
    "version": 1
  },
  "userdoc": {
    "kind": "user",
    "methods": {},
    "notice": "You can use this contract to generate multiple tenders and act upon them based on the roles provided.",
    "version": 1
  }
}