{
  "contractName": "Tender",
  "abi": [
    {
      "inputs": [],
      "stateMutability": "nonpayable",
      "type": "constructor"
    },
    {
      "anonymous": false,
      "inputs": [
        {
          "indexed": true,
          "internalType": "address",
          "name": "donor",
          "type": "address"
        },
        {
          "indexed": false,
          "internalType": "uint256",
          "name": "amount",
          "type": "uint256"
        },
        {
          "indexed": false,
          "internalType": "uint256",
          "name": "time",
          "type": "uint256"
        }
      ],
      "name": "DonorEvent",
      "type": "event"
    },
    {
      "inputs": [],
      "name": "authorizer",
      "outputs": [
        {
          "internalType": "address",
          "name": "",
          "type": "address"
        }
      ],
      "stateMutability": "view",
      "type": "function"
    },
    {
      "inputs": [],
      "name": "deadline",
      "outputs": [
        {
          "internalType": "uint256",
          "name": "",
          "type": "uint256"
        }
      ],
      "stateMutability": "view",
      "type": "function"
    },
    {
      "inputs": [],
      "name": "destroyed",
      "outputs": [
        {
          "internalType": "bool",
          "name": "",
          "type": "bool"
        }
      ],
      "stateMutability": "view",
      "type": "function"
    },
    {
      "inputs": [
        {
          "internalType": "address",
          "name": "",
          "type": "address"
        }
      ],
      "name": "donors",
      "outputs": [
        {
          "internalType": "uint256",
          "name": "",
          "type": "uint256"
        }
      ],
      "stateMutability": "view",
      "type": "function"
    },
    {
      "inputs": [],
      "name": "minimumContribution",
      "outputs": [
        {
          "internalType": "uint256",
          "name": "",
          "type": "uint256"
        }
      ],
      "stateMutability": "view",
      "type": "function"
    },
    {
      "inputs": [],
      "name": "noOfDonors",
      "outputs": [
        {
          "internalType": "uint256",
          "name": "",
          "type": "uint256"
        }
      ],
      "stateMutability": "view",
      "type": "function"
    },
    {
      "inputs": [],
      "name": "numOfRegisteredTender",
      "outputs": [
        {
          "internalType": "uint256",
          "name": "",
          "type": "uint256"
        }
      ],
      "stateMutability": "view",
      "type": "function"
    },
    {
      "inputs": [],
      "name": "numRequests",
      "outputs": [
        {
          "internalType": "uint256",
          "name": "",
          "type": "uint256"
        }
      ],
      "stateMutability": "view",
      "type": "function"
    },
    {
      "inputs": [],
      "name": "owner",
      "outputs": [
        {
          "internalType": "address",
          "name": "",
          "type": "address"
        }
      ],
      "stateMutability": "view",
      "type": "function"
    },
    {
      "inputs": [],
      "name": "pdfUrl",
      "outputs": [
        {
          "internalType": "string",
          "name": "",
          "type": "string"
        }
      ],
      "stateMutability": "view",
      "type": "function"
    },
    {
      "inputs": [],
      "name": "raisedTarget",
      "outputs": [
        {
          "internalType": "uint256",
          "name": "",
          "type": "uint256"
        }
      ],
      "stateMutability": "view",
      "type": "function"
    },
    {
      "inputs": [
        {
          "internalType": "uint256",
          "name": "",
          "type": "uint256"
        }
      ],
      "name": "requests",
      "outputs": [
        {
          "internalType": "string",
          "name": "description",
          "type": "string"
        },
        {
          "internalType": "uint256",
          "name": "value",
          "type": "uint256"
        },
        {
          "internalType": "bool",
          "name": "completed",
          "type": "bool"
        },
        {
          "internalType": "uint256",
          "name": "noOfVoters",
          "type": "uint256"
        },
        {
          "internalType": "address payable",
          "name": "recipient",
          "type": "address"
        }
      ],
      "stateMutability": "view",
      "type": "function"
    },
    {
      "inputs": [],
      "name": "target",
      "outputs": [
        {
          "internalType": "uint256",
          "name": "",
          "type": "uint256"
        }
      ],
      "stateMutability": "view",
      "type": "function"
    },
    {
      "inputs": [
        {
          "internalType": "uint256",
          "name": "_target",
          "type": "uint256"
        },
        {
          "internalType": "uint256",
          "name": "_minimum",
          "type": "uint256"
        },
        {
          "internalType": "string",
          "name": "_url",
          "type": "string"
        },
        {
          "internalType": "uint256",
          "name": "_deadline",
          "type": "uint256"
        },
        {
          "internalType": "address",
          "name": "_authorizer",
          "type": "address"
        },
        {
          "internalType": "address",
          "name": "_beneficiary",
          "type": "address"
        }
      ],
      "name": "registerTender",
      "outputs": [],
      "stateMutability": "nonpayable",
      "type": "function"
    },
    {
      "inputs": [],
      "name": "donate",
      "outputs": [],
      "stateMutability": "payable",
      "type": "function"
    },
    {
      "inputs": [],
      "name": "refund",
      "outputs": [],
      "stateMutability": "nonpayable",
      "type": "function"
    },
    {
      "inputs": [],
      "name": "readTenderStatus",
      "outputs": [
        {
          "internalType": "address",
          "name": "",
          "type": "address"
        },
        {
          "internalType": "string",
          "name": "",
          "type": "string"
        },
        {
          "internalType": "uint256",
          "name": "",
          "type": "uint256"
        },
        {
          "internalType": "uint256",
          "name": "",
          "type": "uint256"
        },
        {
          "internalType": "uint256",
          "name": "",
          "type": "uint256"
        },
        {
          "internalType": "uint256",
          "name": "",
          "type": "uint256"
        },
        {
          "internalType": "uint256",
          "name": "",
          "type": "uint256"
        },
        {
          "internalType": "uint256",
          "name": "",
          "type": "uint256"
        },
        {
          "internalType": "address",
          "name": "",
          "type": "address"
        },
        {
          "internalType": "bool",
          "name": "",
          "type": "bool"
        }
      ],
      "stateMutability": "view",
      "type": "function"
    },
    {
      "inputs": [
        {
          "internalType": "string",
          "name": "_description",
          "type": "string"
        },
        {
          "internalType": "address payable",
          "name": "_recipient",
          "type": "address"
        },
        {
          "internalType": "uint256",
          "name": "_value",
          "type": "uint256"
        }
      ],
      "name": "createRequest",
      "outputs": [],
      "stateMutability": "payable",
      "type": "function"
    },
    {
      "inputs": [
        {
          "internalType": "uint256",
          "name": "_requestNo",
          "type": "uint256"
        }
      ],
      "name": "voteRequest",
      "outputs": [],
      "stateMutability": "nonpayable",
      "type": "function"
    },
    {
      "inputs": [
        {
          "internalType": "uint256",
          "name": "_requestNo",
          "type": "uint256"
        }
      ],
      "name": "settleRequest",
      "outputs": [],
      "stateMutability": "nonpayable",
      "type": "function"
    },
    {
      "inputs": [
        {
          "internalType": "uint256",
          "name": "_i",
          "type": "uint256"
        }
      ],
      "name": "getRequeststatus",
      "outputs": [
        {
          "internalType": "uint256",
          "name": "",
          "type": "uint256"
        },
        {
          "internalType": "bool",
          "name": "",
          "type": "bool"
        },
        {
          "internalType": "uint256",
          "name": "",
          "type": "uint256"
        },
        {
          "internalType": "address",
          "name": "",
          "type": "address"
        },
        {
          "internalType": "uint256",
          "name": "",
          "type": "uint256"
        },
        {
          "internalType": "string",
          "name": "",
          "type": "string"
        },
        {
          "internalType": "address",
          "name": "",
          "type": "address"
        },
        {
          "internalType": "uint256",
          "name": "",
          "type": "uint256"
        }
      ],
      "stateMutability": "view",
      "type": "function"
    },
    {
      "inputs": [],
      "name": "getContractBalance",
      "outputs": [
        {
          "internalType": "uint256",
          "name": "",
          "type": "uint256"
        }
      ],
      "stateMutability": "view",
      "type": "function"
    }
  ],
  "bytecode": "0x608060405234801561000f575f80fd5b505f600a5f6101000a81548160ff02191690831515021790555061293a806100365f395ff3fe608060405260043610610134575f3560e01c8063937e09b1116100aa578063d247f92b1161006e578063d247f92b146103fe578063d4b8399214610426578063dff42bc514610450578063e138633b1461047a578063ebca3fcb146104a2578063ed88c68e146104cc57610134565b8063937e09b11461031a5780639fb42b1f14610344578063bf6921581461036e578063ca0cdea814610398578063d09edf31146103d457610134565b8063590e1ae3116100fc578063590e1ae3146101fa5780636b610deb146102105780636f9fb98a1461024357806381d12c581461026d5780638b84590d146102ad5780638da5cb5b146102f057610134565b8063185af738146101385780631b16bb5c1461016257806329dcb0cf1461017e578063359cbbc9146101a85780634cb6f4a5146101d2575b5f80fd5b348015610143575f80fd5b5061014c6104d6565b6040516101599190611743565b60405180910390f35b61017c6004803603810190610177919061192d565b6104dc565b005b348015610189575f80fd5b5061019261070f565b60405161019f9190611743565b60405180910390f35b3480156101b3575f80fd5b506101bc610715565b6040516101c991906119b3565b60405180910390f35b3480156101dd575f80fd5b506101f860048036038101906101f391906119cc565b610727565b005b348015610205575f80fd5b5061020e6109d7565b005b34801561021b575f80fd5b50610224610c2e565b60405161023a9a99989796959493929190611a91565b60405180910390f35b34801561024e575f80fd5b50610257610d48565b6040516102649190611743565b60405180910390f35b348015610278575f80fd5b50610293600480360381019061028e91906119cc565b610d4f565b6040516102a4959493929190611b41565b60405180910390f35b3480156102b8575f80fd5b506102d360048036038101906102ce91906119cc565b610e32565b6040516102e7989796959493929190611b99565b60405180910390f35b3480156102fb575f80fd5b50610304610f98565b6040516103119190611c1c565b60405180910390f35b348015610325575f80fd5b5061032e610fbb565b60405161033b9190611743565b60405180910390f35b34801561034f575f80fd5b50610358610fc1565b6040516103659190611743565b60405180910390f35b348015610379575f80fd5b50610382610fc7565b60405161038f9190611c35565b60405180910390f35b3480156103a3575f80fd5b506103be60048036038101906103b99190611c7f565b611053565b6040516103cb9190611743565b60405180910390f35b3480156103df575f80fd5b506103e8611068565b6040516103f59190611c1c565b60405180910390f35b348015610409575f80fd5b50610424600480360381019061041f91906119cc565b61108d565b005b348015610431575f80fd5b5061043a611343565b6040516104479190611743565b60405180910390f35b34801561045b575f80fd5b50610464611349565b6040516104719190611743565b60405180910390f35b348015610485575f80fd5b506104a0600480360381019061049b9190611caa565b61134f565b005b3480156104ad575f80fd5b506104b661146d565b6040516104c39190611743565b60405180910390f35b6104d4611473565b005b60095481565b600a5f9054906101000a900460ff161561052b576040517f08c379a000000000000000000000000000000000000000000000000000000000815260040161052290611d99565b60405180910390fd5b5f8054906101000a900473ffffffffffffffffffffffffffffffffffffffff1673ffffffffffffffffffffffffffffffffffffffff163373ffffffffffffffffffffffffffffffffffffffff16146105b8576040517f08c379a00000000000000000000000000000000000000000000000000000000081526004016105af90611e27565b60405180910390fd5b600a5f9054906101000a900460ff1615610607576040517f08c379a00000000000000000000000000000000000000000000000000000000081526004016105fe90611e8f565b60405180910390fd5b600454421015801561061d575060055460065411155b61065c576040517f08c379a000000000000000000000000000000000000000000000000000000000815260040161065390611ef7565b60405180910390fd5b5f600b5f60085481526020019081526020015f20905083815f019081610682919061210f565b5082816004015f6101000a81548173ffffffffffffffffffffffffffffffffffffffff021916908373ffffffffffffffffffffffffffffffffffffffff1602179055508181600101819055505f816002015f6101000a81548160ff0219169083151502179055505f816003018190555060085f8154809291906107049061220b565b919050555050505050565b60045481565b600a5f9054906101000a900460ff1681565b600a5f9054906101000a900460ff1615610776576040517f08c379a000000000000000000000000000000000000000000000000000000000815260040161076d90611d99565b60405180910390fd5b5f600c5f3373ffffffffffffffffffffffffffffffffffffffff1673ffffffffffffffffffffffffffffffffffffffff1681526020019081526020015f2054116107f5576040517f08c379a00000000000000000000000000000000000000000000000000000000081526004016107ec906122c2565b60405180910390fd5b600a5f9054906101000a900460ff1615610844576040517f08c379a000000000000000000000000000000000000000000000000000000000815260040161083b90611e8f565b60405180910390fd5b5f600c5f3373ffffffffffffffffffffffffffffffffffffffff1673ffffffffffffffffffffffffffffffffffffffff1681526020019081526020015f2054116108c3576040517f08c379a00000000000000000000000000000000000000000000000000000000081526004016108ba9061232a565b60405180910390fd5b5f600b5f8381526020019081526020015f209050806005015f3373ffffffffffffffffffffffffffffffffffffffff1673ffffffffffffffffffffffffffffffffffffffff1681526020019081526020015f205f9054906101000a900460ff1615610963576040517f08c379a000000000000000000000000000000000000000000000000000000000815260040161095a90612392565b60405180910390fd5b6001816005015f3373ffffffffffffffffffffffffffffffffffffffff1673ffffffffffffffffffffffffffffffffffffffff1681526020019081526020015f205f6101000a81548160ff021916908315150217905550806003015f8154809291906109ce9061220b565b91905055505050565b600a5f9054906101000a900460ff1615610a26576040517f08c379a0000000000000000000000000000000000000000000000000000000008152600401610a1d90611d99565b60405180910390fd5b5f600c5f3373ffffffffffffffffffffffffffffffffffffffff1673ffffffffffffffffffffffffffffffffffffffff1681526020019081526020015f205411610aa5576040517f08c379a0000000000000000000000000000000000000000000000000000000008152600401610a9c906122c2565b60405180910390fd5b600a5f9054906101000a900460ff1615610af4576040517f08c379a0000000000000000000000000000000000000000000000000000000008152600401610aeb90611e8f565b60405180910390fd5b60045442108015610b085750600554600654105b610b47576040517f08c379a0000000000000000000000000000000000000000000000000000000008152600401610b3e906123fa565b60405180910390fd5b3373ffffffffffffffffffffffffffffffffffffffff166108fc600c5f3373ffffffffffffffffffffffffffffffffffffffff1673ffffffffffffffffffffffffffffffffffffffff1681526020019081526020015f205490811502906040515f60405180830381858888f19350505050158015610bc7573d5f803e3d5ffd5b505f600c5f3373ffffffffffffffffffffffffffffffffffffffff1673ffffffffffffffffffffffffffffffffffffffff1681526020019081526020015f20819055505f4703610c2c576001600a5f6101000a81548160ff0219169083151502179055505b565b5f60605f805f805f805f8060015f9054906101000a900473ffffffffffffffffffffffffffffffffffffffff1660026005546004546003546006546007546008545f8054906101000a900473ffffffffffffffffffffffffffffffffffffffff16600a5f9054906101000a900460ff16888054610caa90611f42565b80601f0160208091040260200160405190810160405280929190818152602001828054610cd690611f42565b8015610d215780601f10610cf857610100808354040283529160200191610d21565b820191905f5260205f20905b815481529060010190602001808311610d0457829003601f168201915b50505050509850995099509950995099509950995099509950995090919293949596979899565b5f47905090565b600b602052805f5260405f205f91509050805f018054610d6e90611f42565b80601f0160208091040260200160405190810160405280929190818152602001828054610d9a90611f42565b8015610de55780601f10610dbc57610100808354040283529160200191610de5565b820191905f5260205f20905b815481529060010190602001808311610dc857829003601f168201915b505050505090806001015490806002015f9054906101000a900460ff1690806003015490806004015f9054906101000a900473ffffffffffffffffffffffffffffffffffffffff16905085565b5f805f805f60605f80600954600b5f8b81526020019081526020015f206002015f9054906101000a900460ff16600b5f8c81526020019081526020015f2060010154600b5f8d81526020019081526020015f206004015f9054906101000a900473ffffffffffffffffffffffffffffffffffffffff16600b5f8e81526020019081526020015f2060030154600b5f8f81526020019081526020015f205f015f8054906101000a900473ffffffffffffffffffffffffffffffffffffffff16600754828054610eff90611f42565b80601f0160208091040260200160405190810160405280929190818152602001828054610f2b90611f42565b8015610f765780601f10610f4d57610100808354040283529160200191610f76565b820191905f5260205f20905b815481529060010190602001808311610f5957829003601f168201915b5050505050925097509750975097509750975097509750919395975091939597565b5f8054906101000a900473ffffffffffffffffffffffffffffffffffffffff1681565b60035481565b60085481565b60028054610fd490611f42565b80601f016020809104026020016040519081016040528092919081815260200182805461100090611f42565b801561104b5780601f106110225761010080835404028352916020019161104b565b820191905f5260205f20905b81548152906001019060200180831161102e57829003601f168201915b505050505081565b600c602052805f5260405f205f915090505481565b60015f9054906101000a900473ffffffffffffffffffffffffffffffffffffffff1681565b600a5f9054906101000a900460ff16156110dc576040517f08c379a00000000000000000000000000000000000000000000000000000000081526004016110d390611d99565b60405180910390fd5b5f8054906101000a900473ffffffffffffffffffffffffffffffffffffffff1673ffffffffffffffffffffffffffffffffffffffff163373ffffffffffffffffffffffffffffffffffffffff1614611169576040517f08c379a000000000000000000000000000000000000000000000000000000000815260040161116090611e27565b60405180910390fd5b600a5f9054906101000a900460ff16156111b8576040517f08c379a00000000000000000000000000000000000000000000000000000000081526004016111af90611e8f565b60405180910390fd5b60055460065411156111ff576040517f08c379a00000000000000000000000000000000000000000000000000000000081526004016111f690612462565b60405180910390fd5b5f600b5f8381526020019081526020015f209050806002015f9054906101000a900460ff1615611264576040517f08c379a000000000000000000000000000000000000000000000000000000000815260040161125b906124f0565b60405180910390fd5b6002600754611273919061253b565b8160030154116112b8576040517f08c379a00000000000000000000000000000000000000000000000000000000081526004016112af906125b5565b60405180910390fd5b806004015f9054906101000a900473ffffffffffffffffffffffffffffffffffffffff1673ffffffffffffffffffffffffffffffffffffffff166108fc826001015490811502906040515f60405180830381858888f19350505050158015611322573d5f803e3d5ffd5b506001816002015f6101000a81548160ff0219169083151502179055505050565b60055481565b60075481565b5f60095414611393576040517f08c379a000000000000000000000000000000000000000000000000000000000815260040161138a90612643565b60405180910390fd5b805f806101000a81548173ffffffffffffffffffffffffffffffffffffffff021916908373ffffffffffffffffffffffffffffffffffffffff160217905550856005819055508460038190555083600290816113ef919061210f565b50603c836113fd9190612661565b4261140891906126a2565b6004819055508160015f6101000a81548173ffffffffffffffffffffffffffffffffffffffff021916908373ffffffffffffffffffffffffffffffffffffffff16021790555060095f8154809291906114609061220b565b9190505550505050505050565b60065481565b60045442106114b7576040517f08c379a00000000000000000000000000000000000000000000000000000000081526004016114ae9061271f565b60405180910390fd5b3373ffffffffffffffffffffffffffffffffffffffff165f8054906101000a900473ffffffffffffffffffffffffffffffffffffffff1673ffffffffffffffffffffffffffffffffffffffff1603611544576040517f08c379a000000000000000000000000000000000000000000000000000000000815260040161153b90612787565b60405180910390fd5b600554341115611589576040517f08c379a0000000000000000000000000000000000000000000000000000000008152600401611580906127ef565b60405180910390fd5b5f600854146115cd576040517f08c379a00000000000000000000000000000000000000000000000000000000081526004016115c490612857565b60405180910390fd5b600354341015611612576040517f08c379a0000000000000000000000000000000000000000000000000000000008152600401611609906128bf565b60405180910390fd5b5f600c5f3373ffffffffffffffffffffffffffffffffffffffff1673ffffffffffffffffffffffffffffffffffffffff1681526020019081526020015f20540361166e5760075f8154809291906116689061220b565b91905055505b34600c5f3373ffffffffffffffffffffffffffffffffffffffff1673ffffffffffffffffffffffffffffffffffffffff1681526020019081526020015f205f8282546116ba91906126a2565b925050819055503460065f8282546116d291906126a2565b925050819055503373ffffffffffffffffffffffffffffffffffffffff167f9da4df50e7597f76ae3248159a04907f48b0fc62ed1c8b2ed2a33dc6af002af434426040516117219291906128dd565b60405180910390a2565b5f819050919050565b61173d8161172b565b82525050565b5f6020820190506117565f830184611734565b92915050565b5f604051905090565b5f80fd5b5f80fd5b5f80fd5b5f80fd5b5f601f19601f8301169050919050565b7f4e487b71000000000000000000000000000000000000000000000000000000005f52604160045260245ffd5b6117bb82611775565b810181811067ffffffffffffffff821117156117da576117d9611785565b5b80604052505050565b5f6117ec61175c565b90506117f882826117b2565b919050565b5f67ffffffffffffffff82111561181757611816611785565b5b61182082611775565b9050602081019050919050565b828183375f83830152505050565b5f61184d611848846117fd565b6117e3565b90508281526020810184848401111561186957611868611771565b5b61187484828561182d565b509392505050565b5f82601f8301126118905761188f61176d565b5b81356118a084826020860161183b565b91505092915050565b5f73ffffffffffffffffffffffffffffffffffffffff82169050919050565b5f6118d2826118a9565b9050919050565b6118e2816118c8565b81146118ec575f80fd5b50565b5f813590506118fd816118d9565b92915050565b61190c8161172b565b8114611916575f80fd5b50565b5f8135905061192781611903565b92915050565b5f805f6060848603121561194457611943611765565b5b5f84013567ffffffffffffffff81111561196157611960611769565b5b61196d8682870161187c565b935050602061197e868287016118ef565b925050604061198f86828701611919565b9150509250925092565b5f8115159050919050565b6119ad81611999565b82525050565b5f6020820190506119c65f8301846119a4565b92915050565b5f602082840312156119e1576119e0611765565b5b5f6119ee84828501611919565b91505092915050565b5f611a01826118a9565b9050919050565b611a11816119f7565b82525050565b5f81519050919050565b5f82825260208201905092915050565b5f5b83811015611a4e578082015181840152602081019050611a33565b5f8484015250505050565b5f611a6382611a17565b611a6d8185611a21565b9350611a7d818560208601611a31565b611a8681611775565b840191505092915050565b5f61014082019050611aa55f83018d611a08565b8181036020830152611ab7818c611a59565b9050611ac6604083018b611734565b611ad3606083018a611734565b611ae06080830189611734565b611aed60a0830188611734565b611afa60c0830187611734565b611b0760e0830186611734565b611b15610100830185611a08565b611b236101208301846119a4565b9b9a5050505050505050505050565b611b3b816118c8565b82525050565b5f60a0820190508181035f830152611b598188611a59565b9050611b686020830187611734565b611b7560408301866119a4565b611b826060830185611734565b611b8f6080830184611b32565b9695505050505050565b5f61010082019050611bad5f83018b611734565b611bba602083018a6119a4565b611bc76040830189611734565b611bd46060830188611a08565b611be16080830187611734565b81810360a0830152611bf38186611a59565b9050611c0260c0830185611a08565b611c0f60e0830184611734565b9998505050505050505050565b5f602082019050611c2f5f830184611a08565b92915050565b5f6020820190508181035f830152611c4d8184611a59565b905092915050565b611c5e816119f7565b8114611c68575f80fd5b50565b5f81359050611c7981611c55565b92915050565b5f60208284031215611c9457611c93611765565b5b5f611ca184828501611c6b565b91505092915050565b5f805f805f8060c08789031215611cc457611cc3611765565b5b5f611cd189828a01611919565b9650506020611ce289828a01611919565b955050604087013567ffffffffffffffff811115611d0357611d02611769565b5b611d0f89828a0161187c565b9450506060611d2089828a01611919565b9350506080611d3189828a01611c6b565b92505060a0611d4289828a01611c6b565b9150509295509295509295565b7f636f6e7472616374206973206e6f7420617661696c61626c65000000000000005f82015250565b5f611d83601983611a21565b9150611d8e82611d4f565b602082019050919050565b5f6020820190508181035f830152611db081611d77565b9050919050565b7f4f6e6c79206f776e65722063616e2063616c6c20746869732066756e6374696f5f8201527f6e00000000000000000000000000000000000000000000000000000000000000602082015250565b5f611e11602183611a21565b9150611e1c82611db7565b604082019050919050565b5f6020820190508181035f830152611e3e81611e05565b9050919050565b7f636f6e74726163742069732064657374726f79656400000000000000000000005f82015250565b5f611e79601583611a21565b9150611e8482611e45565b602082019050919050565b5f6020820190508181035f830152611ea681611e6d565b9050919050565b7f446f65736e2774206d65657420726571756573742063726974657269610000005f82015250565b5f611ee1601d83611a21565b9150611eec82611ead565b602082019050919050565b5f6020820190508181035f830152611f0e81611ed5565b9050919050565b7f4e487b71000000000000000000000000000000000000000000000000000000005f52602260045260245ffd5b5f6002820490506001821680611f5957607f821691505b602082108103611f6c57611f6b611f15565b5b50919050565b5f819050815f5260205f209050919050565b5f6020601f8301049050919050565b5f82821b905092915050565b5f60088302611fce7fffffffffffffffffffffffffffffffffffffffffffffffffffffffffffffffff82611f93565b611fd88683611f93565b95508019841693508086168417925050509392505050565b5f819050919050565b5f61201361200e6120098461172b565b611ff0565b61172b565b9050919050565b5f819050919050565b61202c83611ff9565b6120406120388261201a565b848454611f9f565b825550505050565b5f90565b612054612048565b61205f818484612023565b505050565b5b81811015612082576120775f8261204c565b600181019050612065565b5050565b601f8211156120c75761209881611f72565b6120a184611f84565b810160208510156120b0578190505b6120c46120bc85611f84565b830182612064565b50505b505050565b5f82821c905092915050565b5f6120e75f19846008026120cc565b1980831691505092915050565b5f6120ff83836120d8565b9150826002028217905092915050565b61211882611a17565b67ffffffffffffffff81111561213157612130611785565b5b61213b8254611f42565b612146828285612086565b5f60209050601f831160018114612177575f8415612165578287015190505b61216f85826120f4565b8655506121d6565b601f19841661218586611f72565b5f5b828110156121ac57848901518255600182019150602085019450602081019050612187565b868310156121c957848901516121c5601f8916826120d8565b8355505b6001600288020188555050505b505050505050565b7f4e487b71000000000000000000000000000000000000000000000000000000005f52601160045260245ffd5b5f6122158261172b565b91507fffffffffffffffffffffffffffffffffffffffffffffffffffffffffffffffff8203612247576122466121de565b5b600182019050919050565b7f4f6e6c7920646f6e6f72732063616e2063616c6c20746869732066756e6374695f8201527f6f6e000000000000000000000000000000000000000000000000000000000000602082015250565b5f6122ac602283611a21565b91506122b782612252565b604082019050919050565b5f6020820190508181035f8301526122d9816122a0565b9050919050565b7f596f75206d757374206265206120636f6e7472696275746f72000000000000005f82015250565b5f612314601983611a21565b915061231f826122e0565b602082019050919050565b5f6020820190508181035f83015261234181612308565b9050919050565b7f596f75206861766520616c726561647920766f746564000000000000000000005f82015250565b5f61237c601683611a21565b915061238782612348565b602082019050919050565b5f6020820190508181035f8301526123a981612370565b9050919050565b7f596f7520617265206e6f7420656c696769626c6520666f7220726566756e64005f82015250565b5f6123e4601f83611a21565b91506123ef826123b0565b602082019050919050565b5f6020820190508181035f830152612411816123d8565b9050919050565b7f546172676574206e6f74206d65740000000000000000000000000000000000005f82015250565b5f61244c600e83611a21565b915061245782612418565b602082019050919050565b5f6020820190508181035f83015261247981612440565b9050919050565b7f54686520726571756573742068617320616c7265616479206265656e20636f6d5f8201527f706c657465640000000000000000000000000000000000000000000000000000602082015250565b5f6124da602683611a21565b91506124e582612480565b604082019050919050565b5f6020820190508181035f830152612507816124ce565b9050919050565b7f4e487b71000000000000000000000000000000000000000000000000000000005f52601260045260245ffd5b5f6125458261172b565b91506125508361172b565b9250826125605761255f61250e565b5b828204905092915050565b7f4d616a6f7269747920646f6573206e6f7420737570706f7274000000000000005f82015250565b5f61259f601983611a21565b91506125aa8261256b565b602082019050919050565b5f6020820190508181035f8301526125cc81612593565b9050919050565b7f6f6e6c79206f6e652074656e6465722063616e206265207265676973746572655f8201527f6400000000000000000000000000000000000000000000000000000000000000602082015250565b5f61262d602183611a21565b9150612638826125d3565b604082019050919050565b5f6020820190508181035f83015261265a81612621565b9050919050565b5f61266b8261172b565b91506126768361172b565b92508282026126848161172b565b9150828204841483151761269b5761269a6121de565b5b5092915050565b5f6126ac8261172b565b91506126b78361172b565b92508282019050808211156126cf576126ce6121de565b5b92915050565b7f446f6e6174696f6e20706572696f64206973206f7665720000000000000000005f82015250565b5f612709601783611a21565b9150612714826126d5565b602082019050919050565b5f6020820190508181035f830152612736816126fd565b9050919050565b7f4f776e65722063616e277420646f6e61746520746f2073656c660000000000005f82015250565b5f612771601a83611a21565b915061277c8261273d565b602082019050919050565b5f6020820190508181035f83015261279e81612765565b9050919050565b7f446f6e6174696f6e2065786365656473207461726765740000000000000000005f82015250565b5f6127d9601783611a21565b91506127e4826127a5565b602082019050919050565b5f6020820190508181035f830152612806816127cd565b9050919050565b7f526169736564207461726765742068617320616c7265616479206d65740000005f82015250565b5f612841601d83611a21565b915061284c8261280d565b602082019050919050565b5f6020820190508181035f83015261286e81612835565b9050919050565b7f4d696e696d756d20646f6e6174696f6e206e6f74206d657400000000000000005f82015250565b5f6128a9601883611a21565b91506128b482612875565b602082019050919050565b5f6020820190508181035f8301526128d68161289d565b9050919050565b5f6040820190506128f05f830185611734565b6128fd6020830184611734565b939250505056fea2646970667358221220210e13d963b115ef191856567ca4fe27724847f4b4858107a7112bd9821b051464736f6c63430008150033",
  "immutableReferences": {},
  "source": "// SPDX-License-Identifier: MIT\r\npragma solidity ^0.8.11;\r\n\r\nimport \"@openzeppelin/contracts/access/AccessControl.sol\";\r\n\r\n/// @title Factory for Tender\r\n/// @author Rekha Aryal\r\n/// @notice You can use this contract to generate multiple tenders and act upon them based on the roles provided.\r\ncontract TenderFactory is AccessControl {\r\n    bytes32 public constant AUTHORIZER_ROLE = keccak256(\"AUTHORIZER_ROLE\");\r\n\r\n    address public admin;\r\n    uint public index;\r\n\r\n    // Only contains registered tender addresses after deployment.\r\n    address[] deployedAuthorizedTenders;\r\n\r\n    event CreatedTender(\r\n        address indexed owner,\r\n        address deployedTender,\r\n        string category,\r\n        string image,\r\n        uint createTime\r\n    );\r\n    event RegisteredProtocol(\r\n        uint regNumber,\r\n        address indexed client,\r\n        string pdf,\r\n        uint registeredTime\r\n    );\r\n\r\n    constructor() {\r\n         admin=msg.sender;\r\n        roles[msg.sender]=\"admin\";\r\n                _grantRole(DEFAULT_ADMIN_ROLE, msg.sender);\r\n\r\n    }\r\n\r\n    struct Protocol {\r\n        string url;\r\n        string image;\r\n        string category;\r\n        bool validated;\r\n        address beneficiary;\r\n        uint deadline;\r\n        uint minimumContribution;\r\n        uint target;\r\n        uint number;\r\n    }\r\n\r\n    mapping(address => Protocol[]) public protocols;\r\n    mapping(uint => Protocol) public protocolTrack;\r\n    mapping(address => string) public roles;\r\n\r\n    address[] public authorizers;\r\n\r\n    modifier onlyAdmin() {\r\n        require(admin == msg.sender, \"caller is not an admin\");\r\n        _;\r\n    }\r\n\r\n    /// @dev Registers the protocol for validation of a specific beneficiary.\r\n    function registerProtocol(\r\n        uint _min,\r\n        uint _deadline,\r\n        uint _target,\r\n        string memory _url,\r\n        string memory _image,\r\n        string memory _category\r\n    ) public {\r\n        require(!hasRole(DEFAULT_ADMIN_ROLE, msg.sender), \"caller is an Admin\");\r\n        require(!hasRole(AUTHORIZER_ROLE, msg.sender), \"caller is an Authorizer\");\r\n\r\n        Protocol memory item = Protocol({\r\n            url: _url,\r\n            beneficiary: msg.sender,\r\n            category: _category,\r\n            validated: false,\r\n            minimumContribution: _min,\r\n            target: _target,\r\n            deadline: _deadline,\r\n            image: _image,\r\n            number: index\r\n        });\r\n\r\n        protocols[msg.sender].push(item);\r\n        protocolTrack[index] = item;\r\n\r\n        emit RegisteredProtocol(index, msg.sender, _url, block.timestamp);\r\n        index++;\r\n    }\r\n\r\n    /// @dev Internal function to create tender after the validation of protocol by authorizer.\r\n    function createTender(\r\n        address creator,\r\n        uint _deadline1,\r\n        uint _target,\r\n        uint _minimum,\r\n        string memory _PdfUrl,\r\n        uint num\r\n    ) internal {\r\n        Tender tenderPointer = new Tender();\r\n        tenderPointer.registerTender(\r\n            _target,\r\n            _minimum,\r\n            _PdfUrl,\r\n            _deadline1,\r\n            msg.sender,\r\n            creator\r\n        );\r\n        deployedAuthorizedTenders.push(address(tenderPointer));\r\n\r\n        emit CreatedTender(creator, address(tenderPointer), protocolTrack[num].category, protocolTrack[num].image, block.timestamp);\r\n    }\r\n\r\n    /// @dev Authorizer uses this function to validate the protocols.\r\n    function validateProtocol(address _client, uint protocolNum) public {\r\n        require(hasRole(AUTHORIZER_ROLE, msg.sender), \"caller must be an Authorizer\");\r\n\r\n        Protocol[] storage list = protocols[_client];\r\n        Protocol memory ProtocolItem;\r\n        bool protocolFound = false;\r\n\r\n        for (uint i = 0; i < list.length; i++) {\r\n            if (list[i].number == protocolNum) {\r\n                require(!list[i].validated, \"already validated\");\r\n                ProtocolItem = list[i];\r\n                ProtocolItem.validated = true;\r\n                protocolTrack[protocolNum] = ProtocolItem;\r\n                protocols[_client][i] = ProtocolItem;\r\n                protocolFound = true;\r\n            }\r\n        }\r\n\r\n        require(protocolFound, \"Protocol not associated with this address\");\r\n\r\n        createTender(_client, ProtocolItem.deadline, ProtocolItem.target, ProtocolItem.minimumContribution, ProtocolItem.url, protocolNum);\r\n    }\r\n\r\n    function getProtocol() public view returns (Protocol[] memory) {\r\n        return protocols[msg.sender];\r\n    }\r\n\r\n    /// @dev Admin can grant role to other accounts for the role of authorizer.\r\n    function grantAuthorityRole(address _account) public onlyAdmin {\r\n        require(!hasRole(AUTHORIZER_ROLE, _account), \"this address is already an authorizer\");\r\n        grantRole(AUTHORIZER_ROLE, _account);\r\n        roles[_account] = \"authorizer\";\r\n        authorizers.push(_account);\r\n    }\r\n\r\n    function revokeAuthorityRole(address _account) public onlyAdmin {\r\n        require(hasRole(AUTHORIZER_ROLE, _account), \"this address wasn't an authorizer\");\r\n        revokeRole(AUTHORIZER_ROLE, _account);\r\n        roles[_account] = \"\";\r\n\r\n        filterAuthorizerArray(_account);\r\n    }\r\n\r\n    function filterAuthorizerArray(address acc) internal {\r\n        for (uint i = 0; i < authorizers.length; i++) {\r\n            if (authorizers[i] == acc) {\r\n                if (i < (authorizers.length - 1)) {\r\n                    authorizers[i] = authorizers[authorizers.length - 1];\r\n                }\r\n                authorizers.pop();\r\n                break;\r\n            }\r\n        }\r\n    }\r\n\r\n    function getCurrentAuthorizers() public view returns (address[] memory) {\r\n        return authorizers;\r\n    }\r\n\r\n    function getYourRole() public view returns (string memory) {\r\n        return roles[msg.sender];\r\n    }\r\n\r\n    function getDeployedTenders() public view returns (address[] memory) {\r\n        return deployedAuthorizedTenders;\r\n    }\r\n\r\n    function getUnauthorizedProtocols() public view returns (Protocol[] memory) {\r\n        require(hasRole(AUTHORIZER_ROLE, msg.sender), \"only authorizers can call this\");\r\n\r\n        Protocol[] memory lists = new Protocol[](index);\r\n        uint counter = 0;\r\n        for (uint i = 0; i < index; i++) {\r\n            if (!protocolTrack[i].validated) {\r\n                lists[counter] = protocolTrack[i];\r\n                counter++;\r\n            }\r\n        }\r\n        return lists;\r\n    }\r\n}\r\n\r\ncontract Tender {\r\n    address public owner;\r\n    address public authorizer;\r\n    string public pdfUrl;\r\n    uint256 public minimumContribution;\r\n    uint public deadline;\r\n    uint256 public target;\r\n    uint256 public raisedTarget;\r\n    uint256 public noOfDonors;\r\n    uint256 public numRequests;\r\n    uint256 public numOfRegisteredTender;\r\n    bool public destroyed;\r\n\r\n    event DonorEvent(address indexed donor, uint amount, uint time);\r\n\r\n    constructor() {\r\n        destroyed = false;\r\n    }\r\n\r\n    struct Request {\r\n        string description;\r\n        uint256 value;\r\n        bool completed;\r\n        uint256 noOfVoters;\r\n        address payable recipient;\r\n        mapping(address => bool) voters;\r\n    }\r\n\r\n    mapping(uint256 => Request) public requests;\r\n    mapping(address => uint256) public donors;\r\n\r\n    modifier onlyOwner() {\r\n        require(!destroyed, \"contract is not available\");\r\n        require(msg.sender == owner, \"Only owner can call this function\");\r\n        _;\r\n    }\r\n\r\n    modifier onlyDonor() {\r\n        require(!destroyed, \"contract is not available\");\r\n        require(donors[msg.sender] > 0, \"Only donors can call this function\");\r\n        _;\r\n    }\r\n\r\n    modifier shouldNotDestroy() {\r\n        require(!destroyed, \"contract is destroyed\");\r\n        _;\r\n    }\r\n\r\n    /// @dev Register tender with details.\r\n    function registerTender(\r\n        uint256 _target,\r\n        uint256 _minimum,\r\n        string memory _url,\r\n        uint _deadline,\r\n        address _authorizer,\r\n        address _beneficiary\r\n    ) external {\r\n        require(numOfRegisteredTender == 0, \"only one tender can be registered\");\r\n        owner = _beneficiary;\r\n        target = _target;\r\n        minimumContribution = _minimum;\r\n        pdfUrl = _url;\r\n        deadline = block.timestamp + _deadline * 60;\r\n        authorizer = _authorizer;\r\n        numOfRegisteredTender++;\r\n    }\r\n\r\n    /// @dev Donate to the tender.\r\n    function donate() public payable {\r\n        require(block.timestamp < deadline, \"Donation period is over\");\r\n        require(owner != msg.sender, \"Owner can't donate to self\");\r\n        require(msg.value <= target, \"Donation exceeds target\");\r\n        require(numRequests == 0, \"Raised target has already met\");\r\n\r\n        require(msg.value >= minimumContribution, \"Minimum donation not met\");\r\n\r\n        if (donors[msg.sender] == 0) {\r\n            noOfDonors++;\r\n        }\r\n        donors[msg.sender] += msg.value;\r\n        raisedTarget += msg.value;\r\n        emit DonorEvent(msg.sender, msg.value, block.timestamp);\r\n    }\r\n\r\n    /// @dev Refund for donors if criteria are met.\r\n    function refund() public onlyDonor shouldNotDestroy {\r\n        require(block.timestamp < deadline && raisedTarget < target, \"You are not eligible for refund\");\r\n        payable(msg.sender).transfer(donors[msg.sender]);\r\n        donors[msg.sender] = 0;\r\n        if (address(this).balance == 0) {\r\n            destroyed = true;\r\n        }\r\n    }\r\n\r\n    /// @dev Returns the current state of the tender.\r\n    function readTenderStatus()\r\n        public\r\n        view\r\n        returns (\r\n            address,\r\n            string memory,\r\n            uint,\r\n            uint,\r\n            uint,\r\n            uint,\r\n            uint,\r\n            uint,\r\n            address,\r\n            bool\r\n        )\r\n    {\r\n        return (\r\n            authorizer,\r\n            pdfUrl,\r\n            target,\r\n            deadline,\r\n            minimumContribution,\r\n            raisedTarget,\r\n            noOfDonors,\r\n            numRequests,\r\n            owner,\r\n            destroyed\r\n        );\r\n    }\r\n\r\n    /// @dev Create a request for fund usage.\r\n    function createRequest(\r\n        string memory _description,\r\n        address payable _recipient,\r\n        uint256 _value\r\n    ) public payable onlyOwner shouldNotDestroy {\r\n        // @todo\r\n        require(block.timestamp >= deadline && raisedTarget <= target, \"Doesn't meet request criteria\");\r\n        Request storage newRequest = requests[numRequests];\r\n        newRequest.description = _description;\r\n        newRequest.recipient = _recipient;\r\n        newRequest.value = _value;\r\n        newRequest.completed = false;\r\n        newRequest.noOfVoters = 0;\r\n        numRequests++;\r\n    }\r\n\r\n    /// @dev Donors vote for a request.\r\n    function voteRequest(uint256 _requestNo) public onlyDonor shouldNotDestroy {\r\n        require(donors[msg.sender] > 0, \"You must be a contributor\");\r\n        Request storage thisRequest = requests[_requestNo];\r\n        require(!thisRequest.voters[msg.sender], \"You have already voted\");\r\n\r\n        thisRequest.voters[msg.sender] = true;\r\n        thisRequest.noOfVoters++;\r\n    }\r\n\r\n    /// @dev Settle a request after sufficient votes.\r\n    function settleRequest(uint256 _requestNo) public onlyOwner shouldNotDestroy {\r\n        require(raisedTarget <= target, \"Target not met\");\r\n        Request storage thisRequest = requests[_requestNo];\r\n        require(!thisRequest.completed, \"The request has already been completed\");\r\n        require(thisRequest.noOfVoters > noOfDonors / 2, \"Majority does not support\");\r\n\r\n        thisRequest.recipient.transfer(thisRequest.value);\r\n        thisRequest.completed = true;\r\n    }\r\n    function getRequeststatus(uint256 _i)\r\n        public\r\n        view\r\n        returns (\r\n            uint256,\r\n            bool,\r\n            uint256,\r\n            address,\r\n            uint256,\r\n            string memory,\r\n            address,\r\n            uint256\r\n        )\r\n    {\r\n        return (\r\n            numOfRegisteredTender,\r\n            requests[_i].completed,\r\n            requests[_i].value,\r\n            requests[_i].recipient,\r\n            requests[_i].noOfVoters,\r\n            requests[_i].description,\r\n            owner,\r\n            noOfDonors\r\n        );\r\n    }\r\n\r\n    function getContractBalance() public view returns (uint) {\r\n        return address(this).balance;\r\n    }\r\n}",
  "sourcePath": "C:\\Users\\User\\Desktop\\DonorChain\\contracts\\Donorchain.sol",
  "compiler": {
    "name": "solc",
    "version": "0.8.21+commit.d9974bed.Emscripten.clang"
  },
  "schemaVersion": "3.4.16",
  "updatedAt": "2025-03-03T15:14:12.825Z",
  "devdoc": {
    "kind": "dev",
    "methods": {
      "createRequest(string,address,uint256)": {
        "details": "Create a request for fund usage."
      },
      "donate()": {
        "details": "Donate to the tender."
      },
      "readTenderStatus()": {
        "details": "Returns the current state of the tender."
      },
      "refund()": {
        "details": "Refund for donors if criteria are met."
      },
      "registerTender(uint256,uint256,string,uint256,address,address)": {
        "details": "Register tender with details."
      },
      "settleRequest(uint256)": {
        "details": "Settle a request after sufficient votes."
      },
      "voteRequest(uint256)": {
        "details": "Donors vote for a request."
      }
    },
    "version": 1
  },
  "userdoc": {
    "kind": "user",
    "methods": {},
    "version": 1
  }
}